{
  "_format": "hh-sol-artifact-1",
  "contractName": "ERC20Token",
  "sourceName": "contracts/ERC20Token.sol",
  "abi": [
    {
      "inputs": [
        {
          "internalType": "address",
          "name": "spender",
          "type": "address"
        },
        {
          "internalType": "uint256",
          "name": "allowance",
          "type": "uint256"
        },
        {
          "internalType": "uint256",
          "name": "needed",
          "type": "uint256"
        }
      ],
      "name": "ERC20InsufficientAllowance",
      "type": "error"
    },
    {
      "inputs": [
        {
          "internalType": "address",
          "name": "sender",
          "type": "address"
        },
        {
          "internalType": "uint256",
          "name": "balance",
          "type": "uint256"
        },
        {
          "internalType": "uint256",
          "name": "needed",
          "type": "uint256"
        }
      ],
      "name": "ERC20InsufficientBalance",
      "type": "error"
    },
    {
      "inputs": [
        {
          "internalType": "address",
          "name": "approver",
          "type": "address"
        }
      ],
      "name": "ERC20InvalidApprover",
      "type": "error"
    },
    {
      "inputs": [
        {
          "internalType": "address",
          "name": "receiver",
          "type": "address"
        }
      ],
      "name": "ERC20InvalidReceiver",
      "type": "error"
    },
    {
      "inputs": [
        {
          "internalType": "address",
          "name": "sender",
          "type": "address"
        }
      ],
      "name": "ERC20InvalidSender",
      "type": "error"
    },
    {
      "inputs": [
        {
          "internalType": "address",
          "name": "spender",
          "type": "address"
        }
      ],
      "name": "ERC20InvalidSpender",
      "type": "error"
    },
    {
      "inputs": [],
      "name": "InvalidInitialization",
      "type": "error"
    },
    {
      "inputs": [],
      "name": "NotInitializing",
      "type": "error"
    },
    {
      "anonymous": false,
      "inputs": [
        {
          "indexed": true,
          "internalType": "address",
          "name": "owner",
          "type": "address"
        },
        {
          "indexed": true,
          "internalType": "address",
          "name": "spender",
          "type": "address"
        },
        {
          "indexed": false,
          "internalType": "uint256",
          "name": "value",
          "type": "uint256"
        }
      ],
      "name": "Approval",
      "type": "event"
    },
    {
      "anonymous": false,
      "inputs": [
        {
          "indexed": false,
          "internalType": "uint64",
          "name": "version",
          "type": "uint64"
        }
      ],
      "name": "Initialized",
      "type": "event"
    },
    {
      "anonymous": false,
      "inputs": [
        {
          "indexed": true,
          "internalType": "address",
          "name": "from",
          "type": "address"
        },
        {
          "indexed": true,
          "internalType": "address",
          "name": "to",
          "type": "address"
        },
        {
          "indexed": false,
          "internalType": "uint256",
          "name": "value",
          "type": "uint256"
        }
      ],
      "name": "Transfer",
      "type": "event"
    },
    {
      "inputs": [
        {
          "internalType": "address",
          "name": "owner",
          "type": "address"
        },
        {
          "internalType": "address",
          "name": "spender",
          "type": "address"
        }
      ],
      "name": "allowance",
      "outputs": [
        {
          "internalType": "uint256",
          "name": "",
          "type": "uint256"
        }
      ],
      "stateMutability": "view",
      "type": "function"
    },
    {
      "inputs": [
        {
          "internalType": "address",
          "name": "spender",
          "type": "address"
        },
        {
          "internalType": "uint256",
          "name": "value",
          "type": "uint256"
        }
      ],
      "name": "approve",
      "outputs": [
        {
          "internalType": "bool",
          "name": "",
          "type": "bool"
        }
      ],
      "stateMutability": "nonpayable",
      "type": "function"
    },
    {
      "inputs": [
        {
          "internalType": "address",
          "name": "account",
          "type": "address"
        }
      ],
      "name": "balanceOf",
      "outputs": [
        {
          "internalType": "uint256",
          "name": "",
          "type": "uint256"
        }
      ],
      "stateMutability": "view",
      "type": "function"
    },
    {
      "inputs": [],
      "name": "decimals",
      "outputs": [
        {
          "internalType": "uint8",
          "name": "",
          "type": "uint8"
        }
      ],
      "stateMutability": "view",
      "type": "function"
    },
    {
      "inputs": [
        {
          "internalType": "string",
          "name": "name",
          "type": "string"
        },
        {
          "internalType": "string",
          "name": "symbol",
          "type": "string"
        },
        {
          "internalType": "address",
          "name": "owner",
          "type": "address"
        },
        {
          "internalType": "uint256",
          "name": "totalSupply_",
          "type": "uint256"
        },
        {
          "internalType": "address",
          "name": "ERC20TokenFactory",
          "type": "address"
        },
        {
          "internalType": "uint256",
          "name": "fee",
          "type": "uint256"
        }
      ],
      "name": "initialize",
      "outputs": [],
      "stateMutability": "nonpayable",
      "type": "function"
    },
    {
      "inputs": [],
      "name": "name",
      "outputs": [
        {
          "internalType": "string",
          "name": "",
          "type": "string"
        }
      ],
      "stateMutability": "view",
      "type": "function"
    },
    {
      "inputs": [],
      "name": "symbol",
      "outputs": [
        {
          "internalType": "string",
          "name": "",
          "type": "string"
        }
      ],
      "stateMutability": "view",
      "type": "function"
    },
    {
      "inputs": [],
      "name": "totalSupply",
      "outputs": [
        {
          "internalType": "uint256",
          "name": "",
          "type": "uint256"
        }
      ],
      "stateMutability": "view",
      "type": "function"
    },
    {
      "inputs": [
        {
          "internalType": "address",
          "name": "to",
          "type": "address"
        },
        {
          "internalType": "uint256",
          "name": "value",
          "type": "uint256"
        }
      ],
      "name": "transfer",
      "outputs": [
        {
          "internalType": "bool",
          "name": "",
          "type": "bool"
        }
      ],
      "stateMutability": "nonpayable",
      "type": "function"
    },
    {
      "inputs": [
        {
          "internalType": "address",
          "name": "from",
          "type": "address"
        },
        {
          "internalType": "address",
          "name": "to",
          "type": "address"
        },
        {
          "internalType": "uint256",
          "name": "value",
          "type": "uint256"
        }
      ],
      "name": "transferFrom",
      "outputs": [
        {
          "internalType": "bool",
          "name": "",
          "type": "bool"
        }
      ],
      "stateMutability": "nonpayable",
      "type": "function"
    }
  ],
  "bytecode": "0x608060405234801561001057600080fd5b506117ad806100206000396000f3fe608060405234801561001057600080fd5b506004361061009e5760003560e01c806370a082311161006657806370a082311461015d57806395d89b411461018d578063a9059cbb146101ab578063be9561f0146101db578063dd62ed3e146101f75761009e565b806306fdde03146100a3578063095ea7b3146100c157806318160ddd146100f157806323b872dd1461010f578063313ce5671461013f575b600080fd5b6100ab610227565b6040516100b89190610fb1565b60405180910390f35b6100db60048036038101906100d69190611071565b6102c8565b6040516100e891906110cc565b60405180910390f35b6100f96102eb565b60405161010691906110f6565b60405180910390f35b61012960048036038101906101249190611111565b610303565b60405161013691906110cc565b60405180910390f35b610147610332565b6040516101549190611180565b60405180910390f35b6101776004803603810190610172919061119b565b61033b565b60405161018491906110f6565b60405180910390f35b610195610392565b6040516101a29190610fb1565b60405180910390f35b6101c560048036038101906101c09190611071565b610433565b6040516101d291906110cc565b60405180910390f35b6101f560048036038101906101f0919061122d565b610456565b005b610211600480360381019061020c91906112fc565b61073d565b60405161021e91906110f6565b60405180910390f35b606060006102336107d2565b90508060030180546102449061136b565b80601f01602080910402602001604051908101604052809291908181526020018280546102709061136b565b80156102bd5780601f10610292576101008083540402835291602001916102bd565b820191906000526020600020905b8154815290600101906020018083116102a057829003601f168201915b505050505091505090565b6000806102d36107fa565b90506102e0818585610802565b600191505092915050565b6000806102f66107d2565b9050806002015491505090565b60008061030e6107fa565b905061031b858285610814565b6103268585856108a8565b60019150509392505050565b60006012905090565b6000806103466107d2565b90508060000160008473ffffffffffffffffffffffffffffffffffffffff1673ffffffffffffffffffffffffffffffffffffffff16815260200190815260200160002054915050919050565b6060600061039e6107d2565b90508060040180546103af9061136b565b80601f01602080910402602001604051908101604052809291908181526020018280546103db9061136b565b80156104285780601f106103fd57610100808354040283529160200191610428565b820191906000526020600020905b81548152906001019060200180831161040b57829003601f168201915b505050505091505090565b60008061043e6107fa565b905061044b8185856108a8565b600191505092915050565b61046a679b84561216417c7660c01b61099c565b600061047461099f565b905060008160000160089054906101000a900460ff1615905060008260000160009054906101000a900467ffffffffffffffff1690506000808267ffffffffffffffff161480156104c25750825b9050600060018367ffffffffffffffff161480156104f7575060003073ffffffffffffffffffffffffffffffffffffffff163b145b905081158015610505575080155b1561053c576040517ff92ee8a900000000000000000000000000000000000000000000000000000000815260040160405180910390fd5b60018560000160006101000a81548167ffffffffffffffff021916908367ffffffffffffffff160217905550831561058c5760018560000160086101000a81548160ff0219169083151502179055505b6105a067cb18f285308e52f660c01b61099c565b6105b4673f3240189d95c74860c01b61099c565b6105c867618fe0d816dfb90060c01b61099c565b6105dc677bb662feeb2448fa60c01b61099c565b61066e8d8d8080601f016020809104026020016040519081016040528093929190818152602001838380828437600081840152601f19601f820116905080830192505050505050508c8c8080601f016020809104026020016040519081016040528093929190818152602001838380828437600081840152601f19601f820116905080830192505050505050506109c7565b6106826720c4fa2cc142753e60c01b61099c565b6106966795d212cef72a497760c01b61099c565b6106a089896109dd565b6106b4679693f8d8699e8a4e60c01b61099c565b6106c8672e6226017380507560c01b61099c565b6106d287876109dd565b831561072e5760008560000160086101000a81548160ff0219169083151502179055507fc7f505b2f371ae2175ee4913f4499e1f2633a7b5936321eed1cdaeb6115181d2600160405161072591906113f5565b60405180910390a15b50505050505050505050505050565b6000806107486107d2565b90508060010160008573ffffffffffffffffffffffffffffffffffffffff1673ffffffffffffffffffffffffffffffffffffffff16815260200190815260200160002060008473ffffffffffffffffffffffffffffffffffffffff1673ffffffffffffffffffffffffffffffffffffffff1681526020019081526020016000205491505092915050565b60007f52c63247e1f47db19d5ce0460030c497f067ca4cebf71ba98eeadabe20bace00905090565b600033905090565b61080f8383836001610a5f565b505050565b6000610820848461073d565b90507fffffffffffffffffffffffffffffffffffffffffffffffffffffffffffffffff81146108a25781811015610892578281836040517ffb8f41b20000000000000000000000000000000000000000000000000000000081526004016108899392919061141f565b60405180910390fd5b6108a184848484036000610a5f565b5b50505050565b600073ffffffffffffffffffffffffffffffffffffffff168373ffffffffffffffffffffffffffffffffffffffff160361091a5760006040517f96c6fd1e0000000000000000000000000000000000000000000000000000000081526004016109119190611456565b60405180910390fd5b600073ffffffffffffffffffffffffffffffffffffffff168273ffffffffffffffffffffffffffffffffffffffff160361098c5760006040517fec442f050000000000000000000000000000000000000000000000000000000081526004016109839190611456565b60405180910390fd5b610997838383610c45565b505050565b50565b60007ff0c57e16840df040f15088dc2f81fe391c3923bec73e23a9662efc9c229c6a00905090565b6109cf610e84565b6109d98282610ec4565b5050565b600073ffffffffffffffffffffffffffffffffffffffff168273ffffffffffffffffffffffffffffffffffffffff1603610a4f5760006040517fec442f05000000000000000000000000000000000000000000000000000000008152600401610a469190611456565b60405180910390fd5b610a5b60008383610c45565b5050565b6000610a696107d2565b9050600073ffffffffffffffffffffffffffffffffffffffff168573ffffffffffffffffffffffffffffffffffffffff1603610add5760006040517fe602df05000000000000000000000000000000000000000000000000000000008152600401610ad49190611456565b60405180910390fd5b600073ffffffffffffffffffffffffffffffffffffffff168473ffffffffffffffffffffffffffffffffffffffff1603610b4f5760006040517f94280d62000000000000000000000000000000000000000000000000000000008152600401610b469190611456565b60405180910390fd5b828160010160008773ffffffffffffffffffffffffffffffffffffffff1673ffffffffffffffffffffffffffffffffffffffff16815260200190815260200160002060008673ffffffffffffffffffffffffffffffffffffffff1673ffffffffffffffffffffffffffffffffffffffff168152602001908152602001600020819055508115610c3e578373ffffffffffffffffffffffffffffffffffffffff168573ffffffffffffffffffffffffffffffffffffffff167f8c5be1e5ebec7d5bd14f71427d1e84f3dd0314c0f7b2291e5b200ac8c7c3b92585604051610c3591906110f6565b60405180910390a35b5050505050565b6000610c4f6107d2565b9050600073ffffffffffffffffffffffffffffffffffffffff168473ffffffffffffffffffffffffffffffffffffffff1603610ca55781816002016000828254610c9991906114a0565b92505081905550610d7e565b60008160000160008673ffffffffffffffffffffffffffffffffffffffff1673ffffffffffffffffffffffffffffffffffffffff16815260200190815260200160002054905082811015610d34578481846040517fe450d38c000000000000000000000000000000000000000000000000000000008152600401610d2b9392919061141f565b60405180910390fd5b8281038260000160008773ffffffffffffffffffffffffffffffffffffffff1673ffffffffffffffffffffffffffffffffffffffff16815260200190815260200160002081905550505b600073ffffffffffffffffffffffffffffffffffffffff168373ffffffffffffffffffffffffffffffffffffffff1603610dc957818160020160008282540392505081905550610e19565b818160000160008573ffffffffffffffffffffffffffffffffffffffff1673ffffffffffffffffffffffffffffffffffffffff168152602001908152602001600020600082825401925050819055505b8273ffffffffffffffffffffffffffffffffffffffff168473ffffffffffffffffffffffffffffffffffffffff167fddf252ad1be2c89b69c2b068fc378daa952ba7f163c4a11628f55a4df523b3ef84604051610e7691906110f6565b60405180910390a350505050565b610e8c610f01565b610ec2576040517fd7e6bcf800000000000000000000000000000000000000000000000000000000815260040160405180910390fd5b565b610ecc610e84565b6000610ed66107d2565b905082816003019081610ee991906116a5565b5081816004019081610efb91906116a5565b50505050565b6000610f0b61099f565b60000160089054906101000a900460ff16905090565b600081519050919050565b600082825260208201905092915050565b60005b83811015610f5b578082015181840152602081019050610f40565b60008484015250505050565b6000601f19601f8301169050919050565b6000610f8382610f21565b610f8d8185610f2c565b9350610f9d818560208601610f3d565b610fa681610f67565b840191505092915050565b60006020820190508181036000830152610fcb8184610f78565b905092915050565b600080fd5b600080fd5b600073ffffffffffffffffffffffffffffffffffffffff82169050919050565b600061100882610fdd565b9050919050565b61101881610ffd565b811461102357600080fd5b50565b6000813590506110358161100f565b92915050565b6000819050919050565b61104e8161103b565b811461105957600080fd5b50565b60008135905061106b81611045565b92915050565b6000806040838503121561108857611087610fd3565b5b600061109685828601611026565b92505060206110a78582860161105c565b9150509250929050565b60008115159050919050565b6110c6816110b1565b82525050565b60006020820190506110e160008301846110bd565b92915050565b6110f08161103b565b82525050565b600060208201905061110b60008301846110e7565b92915050565b60008060006060848603121561112a57611129610fd3565b5b600061113886828701611026565b935050602061114986828701611026565b925050604061115a8682870161105c565b9150509250925092565b600060ff82169050919050565b61117a81611164565b82525050565b60006020820190506111956000830184611171565b92915050565b6000602082840312156111b1576111b0610fd3565b5b60006111bf84828501611026565b91505092915050565b600080fd5b600080fd5b600080fd5b60008083601f8401126111ed576111ec6111c8565b5b8235905067ffffffffffffffff81111561120a576112096111cd565b5b602083019150836001820283011115611226576112256111d2565b5b9250929050565b60008060008060008060008060c0898b03121561124d5761124c610fd3565b5b600089013567ffffffffffffffff81111561126b5761126a610fd8565b5b6112778b828c016111d7565b9850985050602089013567ffffffffffffffff81111561129a57611299610fd8565b5b6112a68b828c016111d7565b965096505060406112b98b828c01611026565b94505060606112ca8b828c0161105c565b93505060806112db8b828c01611026565b92505060a06112ec8b828c0161105c565b9150509295985092959890939650565b6000806040838503121561131357611312610fd3565b5b600061132185828601611026565b925050602061133285828601611026565b9150509250929050565b7f4e487b7100000000000000000000000000000000000000000000000000000000600052602260045260246000fd5b6000600282049050600182168061138357607f821691505b6020821081036113965761139561133c565b5b50919050565b6000819050919050565b600067ffffffffffffffff82169050919050565b6000819050919050565b60006113df6113da6113d58461139c565b6113ba565b6113a6565b9050919050565b6113ef816113c4565b82525050565b600060208201905061140a60008301846113e6565b92915050565b61141981610ffd565b82525050565b60006060820190506114346000830186611410565b61144160208301856110e7565b61144e60408301846110e7565b949350505050565b600060208201905061146b6000830184611410565b92915050565b7f4e487b7100000000000000000000000000000000000000000000000000000000600052601160045260246000fd5b60006114ab8261103b565b91506114b68361103b565b92508282019050808211156114ce576114cd611471565b5b92915050565b7f4e487b7100000000000000000000000000000000000000000000000000000000600052604160045260246000fd5b60008190508160005260206000209050919050565b60006020601f8301049050919050565b600082821b905092915050565b6000600883026115657fffffffffffffffffffffffffffffffffffffffffffffffffffffffffffffffff82611528565b61156f8683611528565b95508019841693508086168417925050509392505050565b60006115a261159d6115988461103b565b6113ba565b61103b565b9050919050565b6000819050919050565b6115bc83611587565b6115d06115c8826115a9565b848454611535565b825550505050565b600090565b6115e56115d8565b6115f08184846115b3565b505050565b5b81811015611614576116096000826115dd565b6001810190506115f6565b5050565b601f8211156116595761162a81611503565b61163384611518565b81016020851015611642578190505b61165661164e85611518565b8301826115f5565b50505b505050565b600082821c905092915050565b600061167c6000198460080261165e565b1980831691505092915050565b6000611695838361166b565b9150826002028217905092915050565b6116ae82610f21565b67ffffffffffffffff8111156116c7576116c66114d4565b5b6116d1825461136b565b6116dc828285611618565b600060209050601f83116001811461170f57600084156116fd578287015190505b6117078582611689565b86555061176f565b601f19841661171d86611503565b60005b8281101561174557848901518255600182019150602085019450602081019050611720565b86831015611762578489015161175e601f89168261166b565b8355505b6001600288020188555050505b50505050505056fea2646970667358221220d5f6ef087f4a5566b60ac3c4084e27b01cf2218d66c5232a28e0ba4f24538a1964736f6c63430008180033",
  "linkReferences": {},
  "deployedLinkReferences": {}
}