{
  "contracts/ERC20TokenFactory.sol": {
    "ERC20TokenFactory": {
      "abi": [
        {
          "inputs": [
            {
              "internalType": "address",
              "name": "_implementation",
              "type": "address"
            }
          ],
          "stateMutability": "nonpayable",
          "type": "constructor"
        },
        {
          "inputs": [],
          "name": "ERC1167FailedCreateClone",
          "type": "error"
        },
        {
          "inputs": [
            {
              "internalType": "address",
              "name": "owner",
              "type": "address"
            }
          ],
          "name": "OwnableInvalidOwner",
          "type": "error"
        },
        {
          "inputs": [
            {
              "internalType": "address",
              "name": "account",
              "type": "address"
            }
          ],
          "name": "OwnableUnauthorizedAccount",
          "type": "error"
        },
        {
          "anonymous": false,
          "inputs": [
            {
              "indexed": true,
              "internalType": "address",
              "name": "proxyAddress",
              "type": "address"
            },
            {
              "indexed": true,
              "internalType": "string",
              "name": "name",
              "type": "string"
            },
            {
              "indexed": true,
              "internalType": "string",
              "name": "symbol",
              "type": "string"
            },
            {
              "indexed": false,
              "internalType": "uint256",
              "name": "totalSupply",
              "type": "uint256"
            }
          ],
          "name": "Deploy",
          "type": "event"
        },
        {
          "anonymous": false,
          "inputs": [
            {
              "indexed": true,
              "internalType": "bool",
              "name": "FeeManager",
              "type": "bool"
            },
            {
              "indexed": true,
              "internalType": "bool",
              "name": "ReferralManager",
              "type": "bool"
            }
          ],
          "name": "FeeMode",
          "type": "event"
        },
        {
          "anonymous": false,
          "inputs": [
            {
              "indexed": true,
              "internalType": "address",
              "name": "previousOwner",
              "type": "address"
            },
            {
              "indexed": true,
              "internalType": "address",
              "name": "newOwner",
              "type": "address"
            }
          ],
          "name": "OwnershipTransferred",
          "type": "event"
        },
        {
          "inputs": [],
          "name": "FeeManager",
          "outputs": [
            {
              "internalType": "bool",
              "name": "",
              "type": "bool"
            }
          ],
          "stateMutability": "view",
          "type": "function"
        },
        {
          "inputs": [],
          "name": "ReferralManager",
          "outputs": [
            {
              "internalType": "bool",
              "name": "",
              "type": "bool"
            }
          ],
          "stateMutability": "view",
          "type": "function"
        },
        {
          "inputs": [],
          "name": "changeFeeMode",
          "outputs": [],
          "stateMutability": "nonpayable",
          "type": "function"
        },
        {
          "inputs": [
            {
              "internalType": "string",
              "name": "name",
              "type": "string"
            },
            {
              "internalType": "string",
              "name": "symbol",
              "type": "string"
            },
            {
              "internalType": "uint256",
              "name": "totalSupply",
              "type": "uint256"
            },
            {
              "internalType": "bytes32",
              "name": "salt",
              "type": "bytes32"
            }
          ],
          "name": "deploy",
          "outputs": [],
          "stateMutability": "nonpayable",
          "type": "function"
        },
        {
          "inputs": [
            {
              "internalType": "uint256",
              "name": "",
              "type": "uint256"
            }
          ],
          "name": "factory",
          "outputs": [
            {
              "internalType": "address",
              "name": "proxyAddress",
              "type": "address"
            },
            {
              "internalType": "string",
              "name": "name",
              "type": "string"
            },
            {
              "internalType": "string",
              "name": "symbol",
              "type": "string"
            },
            {
              "internalType": "uint256",
              "name": "totalSupply",
              "type": "uint256"
            }
          ],
          "stateMutability": "view",
          "type": "function"
        },
        {
          "inputs": [],
          "name": "fee",
          "outputs": [
            {
              "internalType": "uint256",
              "name": "",
              "type": "uint256"
            }
          ],
          "stateMutability": "view",
          "type": "function"
        },
        {
          "inputs": [
            {
              "internalType": "bytes32",
              "name": "salt",
              "type": "bytes32"
            }
          ],
          "name": "getCloneAddress",
          "outputs": [
            {
              "internalType": "address",
              "name": "",
              "type": "address"
            }
          ],
          "stateMutability": "view",
          "type": "function"
        },
        {
          "inputs": [],
          "name": "implementation",
          "outputs": [
            {
              "internalType": "address",
              "name": "",
              "type": "address"
            }
          ],
          "stateMutability": "view",
          "type": "function"
        },
        {
          "inputs": [],
          "name": "owner",
          "outputs": [
            {
              "internalType": "address",
              "name": "",
              "type": "address"
            }
          ],
          "stateMutability": "view",
          "type": "function"
        },
        {
          "inputs": [],
          "name": "renounceOwnership",
          "outputs": [],
          "stateMutability": "nonpayable",
          "type": "function"
        },
        {
          "inputs": [
            {
              "internalType": "address",
              "name": "newOwner",
              "type": "address"
            }
          ],
          "name": "transferOwnership",
          "outputs": [],
          "stateMutability": "nonpayable",
          "type": "function"
        }
      ],
      "evm": {
        "bytecode": {
          "linkReferences": {},
          "object": "60a06040523480156200001157600080fd5b50604051620016be380380620016be833981810160405281019062000037919062000243565b33600073ffffffffffffffffffffffffffffffffffffffff168173ffffffffffffffffffffffffffffffffffffffff1603620000ad5760006040517f1e4fbdf7000000000000000000000000000000000000000000000000000000008152600401620000a4919062000286565b60405180910390fd5b620000be816200011560201b60201c565b508073ffffffffffffffffffffffffffffffffffffffff1660808173ffffffffffffffffffffffffffffffffffffffff16815250506001600060146101000a81548160ff02191690831515021790555050620002a3565b60008060009054906101000a900473ffffffffffffffffffffffffffffffffffffffff169050816000806101000a81548173ffffffffffffffffffffffffffffffffffffffff021916908373ffffffffffffffffffffffffffffffffffffffff1602179055508173ffffffffffffffffffffffffffffffffffffffff168173ffffffffffffffffffffffffffffffffffffffff167f8be0079c531659141344cd1fd0a4f28419497f9722a3daafe3b4186f6b6457e060405160405180910390a35050565b600080fd5b600073ffffffffffffffffffffffffffffffffffffffff82169050919050565b60006200020b82620001de565b9050919050565b6200021d81620001fe565b81146200022957600080fd5b50565b6000815190506200023d8162000212565b92915050565b6000602082840312156200025c576200025b620001d9565b5b60006200026c848285016200022c565b91505092915050565b6200028081620001fe565b82525050565b60006020820190506200029d600083018462000275565b92915050565b6080516113f1620002cd6000396000818161026a0152818161068201526106e801526113f16000f3fe608060405234801561001057600080fd5b50600436106100a95760003560e01c80638da5cb5b116100715780638da5cb5b1461014357806391e1efa914610161578063c640c33c14610191578063ddca3f43146101af578063edf33f78146101cd578063f2fde38b146101d7576100a9565b8063176a3116146100ae57806322851012146100cc57806322e3dec0146100e85780635c60da1b1461011b578063715018a614610139575b600080fd5b6100b66101f3565b6040516100c39190610af8565b60405180910390f35b6100e660048036038101906100e19190610bee565b610206565b005b61010260048036038101906100fd9190610c95565b610510565b6040516101129493929190610da2565b60405180910390f35b610123610680565b6040516101309190610df5565b60405180910390f35b6101416106a4565b005b61014b6106b8565b6040516101589190610df5565b60405180910390f35b61017b60048036038101906101769190610e10565b6106e1565b6040516101889190610df5565b60405180910390f35b610199610714565b6040516101a69190610af8565b60405180910390f35b6101b7610727565b6040516101c49190610e3d565b60405180910390f35b6101d561072d565b005b6101f160048036038101906101ec9190610e84565b6107db565b005b600060159054906101000a900460ff1681565b600060159054906101000a900460ff161561024157620f424082600261022c9190610ee0565b6102369190610f51565b600181905550610263565b620f42408260036102529190610ee0565b61025c9190610f51565b6001819055505b600061028f7f000000000000000000000000000000000000000000000000000000000000000083610861565b9050600260405180608001604052808373ffffffffffffffffffffffffffffffffffffffff16815260200189898080601f016020809104026020016040519081016040528093929190818152602001838380828437600081840152601f19601f82011690508083019250505050505050815260200187878080601f016020809104026020016040519081016040528093929190818152602001838380828437600081840152601f19601f82011690508083019250505050505050815260200185815250908060018154018082558091505060019003906000526020600020906004020160009091909190915060008201518160000160006101000a81548173ffffffffffffffffffffffffffffffffffffffff021916908373ffffffffffffffffffffffffffffffffffffffff16021790555060208201518160010190816103d791906111bd565b5060408201518160020190816103ed91906111bd565b506060820151816003015550508073ffffffffffffffffffffffffffffffffffffffff1663be9561f088888888336001548a610429919061128f565b6104316106b8565b6001546040518963ffffffff1660e01b81526004016104579897969594939291906112ff565b600060405180830381600087803b15801561047157600080fd5b505af1158015610485573d6000803e3d6000fd5b5050505084846040516104999291906113a2565b604051809103902087876040516104b19291906113a2565b60405180910390208273ffffffffffffffffffffffffffffffffffffffff167f4ed2a9679c30b5d51cf119d4ad9f55161b33a3ccdbf76054c8c75ded8140b7de866040516104ff9190610e3d565b60405180910390a450505050505050565b6002818154811061052057600080fd5b90600052602060002090600402016000915090508060000160009054906101000a900473ffffffffffffffffffffffffffffffffffffffff169080600101805461056990610fe0565b80601f016020809104026020016040519081016040528092919081815260200182805461059590610fe0565b80156105e25780601f106105b7576101008083540402835291602001916105e2565b820191906000526020600020905b8154815290600101906020018083116105c557829003601f168201915b5050505050908060020180546105f790610fe0565b80601f016020809104026020016040519081016040528092919081815260200182805461062390610fe0565b80156106705780601f1061064557610100808354040283529160200191610670565b820191906000526020600020905b81548152906001019060200180831161065357829003601f168201915b5050505050908060030154905084565b7f000000000000000000000000000000000000000000000000000000000000000081565b6106ac610914565b6106b6600061099b565b565b60008060009054906101000a900473ffffffffffffffffffffffffffffffffffffffff16905090565b600061070d7f000000000000000000000000000000000000000000000000000000000000000083610a5f565b9050919050565b600060149054906101000a900460ff1681565b60015481565b610735610914565b600060149054906101000a900460ff1615600060146101000a81548160ff021916908315150217905550600060159054906101000a900460ff1615600060156101000a81548160ff021916908315150217905550600060159054906101000a900460ff161515600060149054906101000a900460ff1615157fbbdf873e1319f800be73a77e1aaf11aaba6b4d52a2d95ad019a51c69e54d780660405160405180910390a3565b6107e3610914565b600073ffffffffffffffffffffffffffffffffffffffff168173ffffffffffffffffffffffffffffffffffffffff16036108555760006040517f1e4fbdf700000000000000000000000000000000000000000000000000000000815260040161084c9190610df5565b60405180910390fd5b61085e8161099b565b50565b6000763d602d80600a3d3981f3363d3d373d3d3d363d730000008360601b60e81c176000526e5af43d82803e903d91602b57fd5bf38360781b1760205281603760096000f59050600073ffffffffffffffffffffffffffffffffffffffff168173ffffffffffffffffffffffffffffffffffffffff160361090e576040517fc2f868f400000000000000000000000000000000000000000000000000000000815260040160405180910390fd5b92915050565b61091c610a74565b73ffffffffffffffffffffffffffffffffffffffff1661093a6106b8565b73ffffffffffffffffffffffffffffffffffffffff16146109995761095d610a74565b6040517f118cdaa70000000000000000000000000000000000000000000000000000000081526004016109909190610df5565b60405180910390fd5b565b60008060009054906101000a900473ffffffffffffffffffffffffffffffffffffffff169050816000806101000a81548173ffffffffffffffffffffffffffffffffffffffff021916908373ffffffffffffffffffffffffffffffffffffffff1602179055508173ffffffffffffffffffffffffffffffffffffffff168173ffffffffffffffffffffffffffffffffffffffff167f8be0079c531659141344cd1fd0a4f28419497f9722a3daafe3b4186f6b6457e060405160405180910390a35050565b6000610a6c838330610a7c565b905092915050565b600033905090565b60006040518260388201526f5af43d82803e903d91602b57fd5bf3ff6024820152846014820152733d602d80600a3d3981f3363d3d373d3d3d363d7381528360588201526037600c8201206078820152605560438201209150509392505050565b60008115159050919050565b610af281610add565b82525050565b6000602082019050610b0d6000830184610ae9565b92915050565b600080fd5b600080fd5b600080fd5b600080fd5b600080fd5b60008083601f840112610b4257610b41610b1d565b5b8235905067ffffffffffffffff811115610b5f57610b5e610b22565b5b602083019150836001820283011115610b7b57610b7a610b27565b5b9250929050565b6000819050919050565b610b9581610b82565b8114610ba057600080fd5b50565b600081359050610bb281610b8c565b92915050565b6000819050919050565b610bcb81610bb8565b8114610bd657600080fd5b50565b600081359050610be881610bc2565b92915050565b60008060008060008060808789031215610c0b57610c0a610b13565b5b600087013567ffffffffffffffff811115610c2957610c28610b18565b5b610c3589828a01610b2c565b9650965050602087013567ffffffffffffffff811115610c5857610c57610b18565b5b610c6489828a01610b2c565b94509450506040610c7789828a01610ba3565b9250506060610c8889828a01610bd9565b9150509295509295509295565b600060208284031215610cab57610caa610b13565b5b6000610cb984828501610ba3565b91505092915050565b600073ffffffffffffffffffffffffffffffffffffffff82169050919050565b6000610ced82610cc2565b9050919050565b610cfd81610ce2565b82525050565b600081519050919050565b600082825260208201905092915050565b60005b83811015610d3d578082015181840152602081019050610d22565b60008484015250505050565b6000601f19601f8301169050919050565b6000610d6582610d03565b610d6f8185610d0e565b9350610d7f818560208601610d1f565b610d8881610d49565b840191505092915050565b610d9c81610b82565b82525050565b6000608082019050610db76000830187610cf4565b8181036020830152610dc98186610d5a565b90508181036040830152610ddd8185610d5a565b9050610dec6060830184610d93565b95945050505050565b6000602082019050610e0a6000830184610cf4565b92915050565b600060208284031215610e2657610e25610b13565b5b6000610e3484828501610bd9565b91505092915050565b6000602082019050610e526000830184610d93565b92915050565b610e6181610ce2565b8114610e6c57600080fd5b50565b600081359050610e7e81610e58565b92915050565b600060208284031215610e9a57610e99610b13565b5b6000610ea884828501610e6f565b91505092915050565b7f4e487b7100000000000000000000000000000000000000000000000000000000600052601160045260246000fd5b6000610eeb82610b82565b9150610ef683610b82565b9250828202610f0481610b82565b91508282048414831517610f1b57610f1a610eb1565b5b5092915050565b7f4e487b7100000000000000000000000000000000000000000000000000000000600052601260045260246000fd5b6000610f5c82610b82565b9150610f6783610b82565b925082610f7757610f76610f22565b5b828204905092915050565b7f4e487b7100000000000000000000000000000000000000000000000000000000600052604160045260246000fd5b7f4e487b7100000000000000000000000000000000000000000000000000000000600052602260045260246000fd5b60006002820490506001821680610ff857607f821691505b60208210810361100b5761100a610fb1565b5b50919050565b60008190508160005260206000209050919050565b60006020601f8301049050919050565b600082821b905092915050565b6000600883026110737fffffffffffffffffffffffffffffffffffffffffffffffffffffffffffffffff82611036565b61107d8683611036565b95508019841693508086168417925050509392505050565b6000819050919050565b60006110ba6110b56110b084610b82565b611095565b610b82565b9050919050565b6000819050919050565b6110d48361109f565b6110e86110e0826110c1565b848454611043565b825550505050565b600090565b6110fd6110f0565b6111088184846110cb565b505050565b5b8181101561112c576111216000826110f5565b60018101905061110e565b5050565b601f8211156111715761114281611011565b61114b84611026565b8101602085101561115a578190505b61116e61116685611026565b83018261110d565b50505b505050565b600082821c905092915050565b600061119460001984600802611176565b1980831691505092915050565b60006111ad8383611183565b9150826002028217905092915050565b6111c682610d03565b67ffffffffffffffff8111156111df576111de610f82565b5b6111e98254610fe0565b6111f4828285611130565b600060209050601f8311600181146112275760008415611215578287015190505b61121f85826111a1565b865550611287565b601f19841661123586611011565b60005b8281101561125d57848901518255600182019150602085019450602081019050611238565b8683101561127a5784890151611276601f891682611183565b8355505b6001600288020188555050505b505050505050565b600061129a82610b82565b91506112a583610b82565b92508282039050818111156112bd576112bc610eb1565b5b92915050565b82818337600083830152505050565b60006112de8385610d0e565b93506112eb8385846112c3565b6112f483610d49565b840190509392505050565b600060c082019050818103600083015261131a818a8c6112d2565b9050818103602083015261132f81888a6112d2565b905061133e6040830187610cf4565b61134b6060830186610d93565b6113586080830185610cf4565b61136560a0830184610d93565b9998505050505050505050565b600081905092915050565b60006113898385611372565b93506113968385846112c3565b82840190509392505050565b60006113af82848661137d565b9150819050939250505056fea2646970667358221220b8dba5d02fda3c77713f63b9e59c903aa1f795a822870cf76ba9dafd432d34c564736f6c63430008180033",
          "opcodes": "PUSH1 0xA0 PUSH1 0x40 MSTORE CALLVALUE DUP1 ISZERO PUSH3 0x11 JUMPI PUSH1 0x0 DUP1 REVERT JUMPDEST POP PUSH1 0x40 MLOAD PUSH3 0x16BE CODESIZE SUB DUP1 PUSH3 0x16BE DUP4 CODECOPY DUP2 DUP2 ADD PUSH1 0x40 MSTORE DUP2 ADD SWAP1 PUSH3 0x37 SWAP2 SWAP1 PUSH3 0x243 JUMP JUMPDEST CALLER PUSH1 0x0 PUSH20 0xFFFFFFFFFFFFFFFFFFFFFFFFFFFFFFFFFFFFFFFF AND DUP2 PUSH20 0xFFFFFFFFFFFFFFFFFFFFFFFFFFFFFFFFFFFFFFFF AND SUB PUSH3 0xAD JUMPI PUSH1 0x0 PUSH1 0x40 MLOAD PUSH32 0x1E4FBDF700000000000000000000000000000000000000000000000000000000 DUP2 MSTORE PUSH1 0x4 ADD PUSH3 0xA4 SWAP2 SWAP1 PUSH3 0x286 JUMP JUMPDEST PUSH1 0x40 MLOAD DUP1 SWAP2 SUB SWAP1 REVERT JUMPDEST PUSH3 0xBE DUP2 PUSH3 0x115 PUSH1 0x20 SHL PUSH1 0x20 SHR JUMP JUMPDEST POP DUP1 PUSH20 0xFFFFFFFFFFFFFFFFFFFFFFFFFFFFFFFFFFFFFFFF AND PUSH1 0x80 DUP2 PUSH20 0xFFFFFFFFFFFFFFFFFFFFFFFFFFFFFFFFFFFFFFFF AND DUP2 MSTORE POP POP PUSH1 0x1 PUSH1 0x0 PUSH1 0x14 PUSH2 0x100 EXP DUP2 SLOAD DUP2 PUSH1 0xFF MUL NOT AND SWAP1 DUP4 ISZERO ISZERO MUL OR SWAP1 SSTORE POP POP PUSH3 0x2A3 JUMP JUMPDEST PUSH1 0x0 DUP1 PUSH1 0x0 SWAP1 SLOAD SWAP1 PUSH2 0x100 EXP SWAP1 DIV PUSH20 0xFFFFFFFFFFFFFFFFFFFFFFFFFFFFFFFFFFFFFFFF AND SWAP1 POP DUP2 PUSH1 0x0 DUP1 PUSH2 0x100 EXP DUP2 SLOAD DUP2 PUSH20 0xFFFFFFFFFFFFFFFFFFFFFFFFFFFFFFFFFFFFFFFF MUL NOT AND SWAP1 DUP4 PUSH20 0xFFFFFFFFFFFFFFFFFFFFFFFFFFFFFFFFFFFFFFFF AND MUL OR SWAP1 SSTORE POP DUP2 PUSH20 0xFFFFFFFFFFFFFFFFFFFFFFFFFFFFFFFFFFFFFFFF AND DUP2 PUSH20 0xFFFFFFFFFFFFFFFFFFFFFFFFFFFFFFFFFFFFFFFF AND PUSH32 0x8BE0079C531659141344CD1FD0A4F28419497F9722A3DAAFE3B4186F6B6457E0 PUSH1 0x40 MLOAD PUSH1 0x40 MLOAD DUP1 SWAP2 SUB SWAP1 LOG3 POP POP JUMP JUMPDEST PUSH1 0x0 DUP1 REVERT JUMPDEST PUSH1 0x0 PUSH20 0xFFFFFFFFFFFFFFFFFFFFFFFFFFFFFFFFFFFFFFFF DUP3 AND SWAP1 POP SWAP2 SWAP1 POP JUMP JUMPDEST PUSH1 0x0 PUSH3 0x20B DUP3 PUSH3 0x1DE JUMP JUMPDEST SWAP1 POP SWAP2 SWAP1 POP JUMP JUMPDEST PUSH3 0x21D DUP2 PUSH3 0x1FE JUMP JUMPDEST DUP2 EQ PUSH3 0x229 JUMPI PUSH1 0x0 DUP1 REVERT JUMPDEST POP JUMP JUMPDEST PUSH1 0x0 DUP2 MLOAD SWAP1 POP PUSH3 0x23D DUP2 PUSH3 0x212 JUMP JUMPDEST SWAP3 SWAP2 POP POP JUMP JUMPDEST PUSH1 0x0 PUSH1 0x20 DUP3 DUP5 SUB SLT ISZERO PUSH3 0x25C JUMPI PUSH3 0x25B PUSH3 0x1D9 JUMP JUMPDEST JUMPDEST PUSH1 0x0 PUSH3 0x26C DUP5 DUP3 DUP6 ADD PUSH3 0x22C JUMP JUMPDEST SWAP2 POP POP SWAP3 SWAP2 POP POP JUMP JUMPDEST PUSH3 0x280 DUP2 PUSH3 0x1FE JUMP JUMPDEST DUP3 MSTORE POP POP JUMP JUMPDEST PUSH1 0x0 PUSH1 0x20 DUP3 ADD SWAP1 POP PUSH3 0x29D PUSH1 0x0 DUP4 ADD DUP5 PUSH3 0x275 JUMP JUMPDEST SWAP3 SWAP2 POP POP JUMP JUMPDEST PUSH1 0x80 MLOAD PUSH2 0x13F1 PUSH3 0x2CD PUSH1 0x0 CODECOPY PUSH1 0x0 DUP2 DUP2 PUSH2 0x26A ADD MSTORE DUP2 DUP2 PUSH2 0x682 ADD MSTORE PUSH2 0x6E8 ADD MSTORE PUSH2 0x13F1 PUSH1 0x0 RETURN INVALID PUSH1 0x80 PUSH1 0x40 MSTORE CALLVALUE DUP1 ISZERO PUSH2 0x10 JUMPI PUSH1 0x0 DUP1 REVERT JUMPDEST POP PUSH1 0x4 CALLDATASIZE LT PUSH2 0xA9 JUMPI PUSH1 0x0 CALLDATALOAD PUSH1 0xE0 SHR DUP1 PUSH4 0x8DA5CB5B GT PUSH2 0x71 JUMPI DUP1 PUSH4 0x8DA5CB5B EQ PUSH2 0x143 JUMPI DUP1 PUSH4 0x91E1EFA9 EQ PUSH2 0x161 JUMPI DUP1 PUSH4 0xC640C33C EQ PUSH2 0x191 JUMPI DUP1 PUSH4 0xDDCA3F43 EQ PUSH2 0x1AF JUMPI DUP1 PUSH4 0xEDF33F78 EQ PUSH2 0x1CD JUMPI DUP1 PUSH4 0xF2FDE38B EQ PUSH2 0x1D7 JUMPI PUSH2 0xA9 JUMP JUMPDEST DUP1 PUSH4 0x176A3116 EQ PUSH2 0xAE JUMPI DUP1 PUSH4 0x22851012 EQ PUSH2 0xCC JUMPI DUP1 PUSH4 0x22E3DEC0 EQ PUSH2 0xE8 JUMPI DUP1 PUSH4 0x5C60DA1B EQ PUSH2 0x11B JUMPI DUP1 PUSH4 0x715018A6 EQ PUSH2 0x139 JUMPI JUMPDEST PUSH1 0x0 DUP1 REVERT JUMPDEST PUSH2 0xB6 PUSH2 0x1F3 JUMP JUMPDEST PUSH1 0x40 MLOAD PUSH2 0xC3 SWAP2 SWAP1 PUSH2 0xAF8 JUMP JUMPDEST PUSH1 0x40 MLOAD DUP1 SWAP2 SUB SWAP1 RETURN JUMPDEST PUSH2 0xE6 PUSH1 0x4 DUP1 CALLDATASIZE SUB DUP2 ADD SWAP1 PUSH2 0xE1 SWAP2 SWAP1 PUSH2 0xBEE JUMP JUMPDEST PUSH2 0x206 JUMP JUMPDEST STOP JUMPDEST PUSH2 0x102 PUSH1 0x4 DUP1 CALLDATASIZE SUB DUP2 ADD SWAP1 PUSH2 0xFD SWAP2 SWAP1 PUSH2 0xC95 JUMP JUMPDEST PUSH2 0x510 JUMP JUMPDEST PUSH1 0x40 MLOAD PUSH2 0x112 SWAP5 SWAP4 SWAP3 SWAP2 SWAP1 PUSH2 0xDA2 JUMP JUMPDEST PUSH1 0x40 MLOAD DUP1 SWAP2 SUB SWAP1 RETURN JUMPDEST PUSH2 0x123 PUSH2 0x680 JUMP JUMPDEST PUSH1 0x40 MLOAD PUSH2 0x130 SWAP2 SWAP1 PUSH2 0xDF5 JUMP JUMPDEST PUSH1 0x40 MLOAD DUP1 SWAP2 SUB SWAP1 RETURN JUMPDEST PUSH2 0x141 PUSH2 0x6A4 JUMP JUMPDEST STOP JUMPDEST PUSH2 0x14B PUSH2 0x6B8 JUMP JUMPDEST PUSH1 0x40 MLOAD PUSH2 0x158 SWAP2 SWAP1 PUSH2 0xDF5 JUMP JUMPDEST PUSH1 0x40 MLOAD DUP1 SWAP2 SUB SWAP1 RETURN JUMPDEST PUSH2 0x17B PUSH1 0x4 DUP1 CALLDATASIZE SUB DUP2 ADD SWAP1 PUSH2 0x176 SWAP2 SWAP1 PUSH2 0xE10 JUMP JUMPDEST PUSH2 0x6E1 JUMP JUMPDEST PUSH1 0x40 MLOAD PUSH2 0x188 SWAP2 SWAP1 PUSH2 0xDF5 JUMP JUMPDEST PUSH1 0x40 MLOAD DUP1 SWAP2 SUB SWAP1 RETURN JUMPDEST PUSH2 0x199 PUSH2 0x714 JUMP JUMPDEST PUSH1 0x40 MLOAD PUSH2 0x1A6 SWAP2 SWAP1 PUSH2 0xAF8 JUMP JUMPDEST PUSH1 0x40 MLOAD DUP1 SWAP2 SUB SWAP1 RETURN JUMPDEST PUSH2 0x1B7 PUSH2 0x727 JUMP JUMPDEST PUSH1 0x40 MLOAD PUSH2 0x1C4 SWAP2 SWAP1 PUSH2 0xE3D JUMP JUMPDEST PUSH1 0x40 MLOAD DUP1 SWAP2 SUB SWAP1 RETURN JUMPDEST PUSH2 0x1D5 PUSH2 0x72D JUMP JUMPDEST STOP JUMPDEST PUSH2 0x1F1 PUSH1 0x4 DUP1 CALLDATASIZE SUB DUP2 ADD SWAP1 PUSH2 0x1EC SWAP2 SWAP1 PUSH2 0xE84 JUMP JUMPDEST PUSH2 0x7DB JUMP JUMPDEST STOP JUMPDEST PUSH1 0x0 PUSH1 0x15 SWAP1 SLOAD SWAP1 PUSH2 0x100 EXP SWAP1 DIV PUSH1 0xFF AND DUP2 JUMP JUMPDEST PUSH1 0x0 PUSH1 0x15 SWAP1 SLOAD SWAP1 PUSH2 0x100 EXP SWAP1 DIV PUSH1 0xFF AND ISZERO PUSH2 0x241 JUMPI PUSH3 0xF4240 DUP3 PUSH1 0x2 PUSH2 0x22C SWAP2 SWAP1 PUSH2 0xEE0 JUMP JUMPDEST PUSH2 0x236 SWAP2 SWAP1 PUSH2 0xF51 JUMP JUMPDEST PUSH1 0x1 DUP2 SWAP1 SSTORE POP PUSH2 0x263 JUMP JUMPDEST PUSH3 0xF4240 DUP3 PUSH1 0x3 PUSH2 0x252 SWAP2 SWAP1 PUSH2 0xEE0 JUMP JUMPDEST PUSH2 0x25C SWAP2 SWAP1 PUSH2 0xF51 JUMP JUMPDEST PUSH1 0x1 DUP2 SWAP1 SSTORE POP JUMPDEST PUSH1 0x0 PUSH2 0x28F PUSH32 0x0 DUP4 PUSH2 0x861 JUMP JUMPDEST SWAP1 POP PUSH1 0x2 PUSH1 0x40 MLOAD DUP1 PUSH1 0x80 ADD PUSH1 0x40 MSTORE DUP1 DUP4 PUSH20 0xFFFFFFFFFFFFFFFFFFFFFFFFFFFFFFFFFFFFFFFF AND DUP2 MSTORE PUSH1 0x20 ADD DUP10 DUP10 DUP1 DUP1 PUSH1 0x1F ADD PUSH1 0x20 DUP1 SWAP2 DIV MUL PUSH1 0x20 ADD PUSH1 0x40 MLOAD SWAP1 DUP2 ADD PUSH1 0x40 MSTORE DUP1 SWAP4 SWAP3 SWAP2 SWAP1 DUP2 DUP2 MSTORE PUSH1 0x20 ADD DUP4 DUP4 DUP1 DUP3 DUP5 CALLDATACOPY PUSH1 0x0 DUP2 DUP5 ADD MSTORE PUSH1 0x1F NOT PUSH1 0x1F DUP3 ADD AND SWAP1 POP DUP1 DUP4 ADD SWAP3 POP POP POP POP POP POP POP DUP2 MSTORE PUSH1 0x20 ADD DUP8 DUP8 DUP1 DUP1 PUSH1 0x1F ADD PUSH1 0x20 DUP1 SWAP2 DIV MUL PUSH1 0x20 ADD PUSH1 0x40 MLOAD SWAP1 DUP2 ADD PUSH1 0x40 MSTORE DUP1 SWAP4 SWAP3 SWAP2 SWAP1 DUP2 DUP2 MSTORE PUSH1 0x20 ADD DUP4 DUP4 DUP1 DUP3 DUP5 CALLDATACOPY PUSH1 0x0 DUP2 DUP5 ADD MSTORE PUSH1 0x1F NOT PUSH1 0x1F DUP3 ADD AND SWAP1 POP DUP1 DUP4 ADD SWAP3 POP POP POP POP POP POP POP DUP2 MSTORE PUSH1 0x20 ADD DUP6 DUP2 MSTORE POP SWAP1 DUP1 PUSH1 0x1 DUP2 SLOAD ADD DUP1 DUP3 SSTORE DUP1 SWAP2 POP POP PUSH1 0x1 SWAP1 SUB SWAP1 PUSH1 0x0 MSTORE PUSH1 0x20 PUSH1 0x0 KECCAK256 SWAP1 PUSH1 0x4 MUL ADD PUSH1 0x0 SWAP1 SWAP2 SWAP1 SWAP2 SWAP1 SWAP2 POP PUSH1 0x0 DUP3 ADD MLOAD DUP2 PUSH1 0x0 ADD PUSH1 0x0 PUSH2 0x100 EXP DUP2 SLOAD DUP2 PUSH20 0xFFFFFFFFFFFFFFFFFFFFFFFFFFFFFFFFFFFFFFFF MUL NOT AND SWAP1 DUP4 PUSH20 0xFFFFFFFFFFFFFFFFFFFFFFFFFFFFFFFFFFFFFFFF AND MUL OR SWAP1 SSTORE POP PUSH1 0x20 DUP3 ADD MLOAD DUP2 PUSH1 0x1 ADD SWAP1 DUP2 PUSH2 0x3D7 SWAP2 SWAP1 PUSH2 0x11BD JUMP JUMPDEST POP PUSH1 0x40 DUP3 ADD MLOAD DUP2 PUSH1 0x2 ADD SWAP1 DUP2 PUSH2 0x3ED SWAP2 SWAP1 PUSH2 0x11BD JUMP JUMPDEST POP PUSH1 0x60 DUP3 ADD MLOAD DUP2 PUSH1 0x3 ADD SSTORE POP POP DUP1 PUSH20 0xFFFFFFFFFFFFFFFFFFFFFFFFFFFFFFFFFFFFFFFF AND PUSH4 0xBE9561F0 DUP9 DUP9 DUP9 DUP9 CALLER PUSH1 0x1 SLOAD DUP11 PUSH2 0x429 SWAP2 SWAP1 PUSH2 0x128F JUMP JUMPDEST PUSH2 0x431 PUSH2 0x6B8 JUMP JUMPDEST PUSH1 0x1 SLOAD PUSH1 0x40 MLOAD DUP10 PUSH4 0xFFFFFFFF AND PUSH1 0xE0 SHL DUP2 MSTORE PUSH1 0x4 ADD PUSH2 0x457 SWAP9 SWAP8 SWAP7 SWAP6 SWAP5 SWAP4 SWAP3 SWAP2 SWAP1 PUSH2 0x12FF JUMP JUMPDEST PUSH1 0x0 PUSH1 0x40 MLOAD DUP1 DUP4 SUB DUP2 PUSH1 0x0 DUP8 DUP1 EXTCODESIZE ISZERO DUP1 ISZERO PUSH2 0x471 JUMPI PUSH1 0x0 DUP1 REVERT JUMPDEST POP GAS CALL ISZERO DUP1 ISZERO PUSH2 0x485 JUMPI RETURNDATASIZE PUSH1 0x0 DUP1 RETURNDATACOPY RETURNDATASIZE PUSH1 0x0 REVERT JUMPDEST POP POP POP POP DUP5 DUP5 PUSH1 0x40 MLOAD PUSH2 0x499 SWAP3 SWAP2 SWAP1 PUSH2 0x13A2 JUMP JUMPDEST PUSH1 0x40 MLOAD DUP1 SWAP2 SUB SWAP1 KECCAK256 DUP8 DUP8 PUSH1 0x40 MLOAD PUSH2 0x4B1 SWAP3 SWAP2 SWAP1 PUSH2 0x13A2 JUMP JUMPDEST PUSH1 0x40 MLOAD DUP1 SWAP2 SUB SWAP1 KECCAK256 DUP3 PUSH20 0xFFFFFFFFFFFFFFFFFFFFFFFFFFFFFFFFFFFFFFFF AND PUSH32 0x4ED2A9679C30B5D51CF119D4AD9F55161B33A3CCDBF76054C8C75DED8140B7DE DUP7 PUSH1 0x40 MLOAD PUSH2 0x4FF SWAP2 SWAP1 PUSH2 0xE3D JUMP JUMPDEST PUSH1 0x40 MLOAD DUP1 SWAP2 SUB SWAP1 LOG4 POP POP POP POP POP POP POP JUMP JUMPDEST PUSH1 0x2 DUP2 DUP2 SLOAD DUP2 LT PUSH2 0x520 JUMPI PUSH1 0x0 DUP1 REVERT JUMPDEST SWAP1 PUSH1 0x0 MSTORE PUSH1 0x20 PUSH1 0x0 KECCAK256 SWAP1 PUSH1 0x4 MUL ADD PUSH1 0x0 SWAP2 POP SWAP1 POP DUP1 PUSH1 0x0 ADD PUSH1 0x0 SWAP1 SLOAD SWAP1 PUSH2 0x100 EXP SWAP1 DIV PUSH20 0xFFFFFFFFFFFFFFFFFFFFFFFFFFFFFFFFFFFFFFFF AND SWAP1 DUP1 PUSH1 0x1 ADD DUP1 SLOAD PUSH2 0x569 SWAP1 PUSH2 0xFE0 JUMP JUMPDEST DUP1 PUSH1 0x1F ADD PUSH1 0x20 DUP1 SWAP2 DIV MUL PUSH1 0x20 ADD PUSH1 0x40 MLOAD SWAP1 DUP2 ADD PUSH1 0x40 MSTORE DUP1 SWAP3 SWAP2 SWAP1 DUP2 DUP2 MSTORE PUSH1 0x20 ADD DUP3 DUP1 SLOAD PUSH2 0x595 SWAP1 PUSH2 0xFE0 JUMP JUMPDEST DUP1 ISZERO PUSH2 0x5E2 JUMPI DUP1 PUSH1 0x1F LT PUSH2 0x5B7 JUMPI PUSH2 0x100 DUP1 DUP4 SLOAD DIV MUL DUP4 MSTORE SWAP2 PUSH1 0x20 ADD SWAP2 PUSH2 0x5E2 JUMP JUMPDEST DUP3 ADD SWAP2 SWAP1 PUSH1 0x0 MSTORE PUSH1 0x20 PUSH1 0x0 KECCAK256 SWAP1 JUMPDEST DUP2 SLOAD DUP2 MSTORE SWAP1 PUSH1 0x1 ADD SWAP1 PUSH1 0x20 ADD DUP1 DUP4 GT PUSH2 0x5C5 JUMPI DUP3 SWAP1 SUB PUSH1 0x1F AND DUP3 ADD SWAP2 JUMPDEST POP POP POP POP POP SWAP1 DUP1 PUSH1 0x2 ADD DUP1 SLOAD PUSH2 0x5F7 SWAP1 PUSH2 0xFE0 JUMP JUMPDEST DUP1 PUSH1 0x1F ADD PUSH1 0x20 DUP1 SWAP2 DIV MUL PUSH1 0x20 ADD PUSH1 0x40 MLOAD SWAP1 DUP2 ADD PUSH1 0x40 MSTORE DUP1 SWAP3 SWAP2 SWAP1 DUP2 DUP2 MSTORE PUSH1 0x20 ADD DUP3 DUP1 SLOAD PUSH2 0x623 SWAP1 PUSH2 0xFE0 JUMP JUMPDEST DUP1 ISZERO PUSH2 0x670 JUMPI DUP1 PUSH1 0x1F LT PUSH2 0x645 JUMPI PUSH2 0x100 DUP1 DUP4 SLOAD DIV MUL DUP4 MSTORE SWAP2 PUSH1 0x20 ADD SWAP2 PUSH2 0x670 JUMP JUMPDEST DUP3 ADD SWAP2 SWAP1 PUSH1 0x0 MSTORE PUSH1 0x20 PUSH1 0x0 KECCAK256 SWAP1 JUMPDEST DUP2 SLOAD DUP2 MSTORE SWAP1 PUSH1 0x1 ADD SWAP1 PUSH1 0x20 ADD DUP1 DUP4 GT PUSH2 0x653 JUMPI DUP3 SWAP1 SUB PUSH1 0x1F AND DUP3 ADD SWAP2 JUMPDEST POP POP POP POP POP SWAP1 DUP1 PUSH1 0x3 ADD SLOAD SWAP1 POP DUP5 JUMP JUMPDEST PUSH32 0x0 DUP2 JUMP JUMPDEST PUSH2 0x6AC PUSH2 0x914 JUMP JUMPDEST PUSH2 0x6B6 PUSH1 0x0 PUSH2 0x99B JUMP JUMPDEST JUMP JUMPDEST PUSH1 0x0 DUP1 PUSH1 0x0 SWAP1 SLOAD SWAP1 PUSH2 0x100 EXP SWAP1 DIV PUSH20 0xFFFFFFFFFFFFFFFFFFFFFFFFFFFFFFFFFFFFFFFF AND SWAP1 POP SWAP1 JUMP JUMPDEST PUSH1 0x0 PUSH2 0x70D PUSH32 0x0 DUP4 PUSH2 0xA5F JUMP JUMPDEST SWAP1 POP SWAP2 SWAP1 POP JUMP JUMPDEST PUSH1 0x0 PUSH1 0x14 SWAP1 SLOAD SWAP1 PUSH2 0x100 EXP SWAP1 DIV PUSH1 0xFF AND DUP2 JUMP JUMPDEST PUSH1 0x1 SLOAD DUP2 JUMP JUMPDEST PUSH2 0x735 PUSH2 0x914 JUMP JUMPDEST PUSH1 0x0 PUSH1 0x14 SWAP1 SLOAD SWAP1 PUSH2 0x100 EXP SWAP1 DIV PUSH1 0xFF AND ISZERO PUSH1 0x0 PUSH1 0x14 PUSH2 0x100 EXP DUP2 SLOAD DUP2 PUSH1 0xFF MUL NOT AND SWAP1 DUP4 ISZERO ISZERO MUL OR SWAP1 SSTORE POP PUSH1 0x0 PUSH1 0x15 SWAP1 SLOAD SWAP1 PUSH2 0x100 EXP SWAP1 DIV PUSH1 0xFF AND ISZERO PUSH1 0x0 PUSH1 0x15 PUSH2 0x100 EXP DUP2 SLOAD DUP2 PUSH1 0xFF MUL NOT AND SWAP1 DUP4 ISZERO ISZERO MUL OR SWAP1 SSTORE POP PUSH1 0x0 PUSH1 0x15 SWAP1 SLOAD SWAP1 PUSH2 0x100 EXP SWAP1 DIV PUSH1 0xFF AND ISZERO ISZERO PUSH1 0x0 PUSH1 0x14 SWAP1 SLOAD SWAP1 PUSH2 0x100 EXP SWAP1 DIV PUSH1 0xFF AND ISZERO ISZERO PUSH32 0xBBDF873E1319F800BE73A77E1AAF11AABA6B4D52A2D95AD019A51C69E54D7806 PUSH1 0x40 MLOAD PUSH1 0x40 MLOAD DUP1 SWAP2 SUB SWAP1 LOG3 JUMP JUMPDEST PUSH2 0x7E3 PUSH2 0x914 JUMP JUMPDEST PUSH1 0x0 PUSH20 0xFFFFFFFFFFFFFFFFFFFFFFFFFFFFFFFFFFFFFFFF AND DUP2 PUSH20 0xFFFFFFFFFFFFFFFFFFFFFFFFFFFFFFFFFFFFFFFF AND SUB PUSH2 0x855 JUMPI PUSH1 0x0 PUSH1 0x40 MLOAD PUSH32 0x1E4FBDF700000000000000000000000000000000000000000000000000000000 DUP2 MSTORE PUSH1 0x4 ADD PUSH2 0x84C SWAP2 SWAP1 PUSH2 0xDF5 JUMP JUMPDEST PUSH1 0x40 MLOAD DUP1 SWAP2 SUB SWAP1 REVERT JUMPDEST PUSH2 0x85E DUP2 PUSH2 0x99B JUMP JUMPDEST POP JUMP JUMPDEST PUSH1 0x0 PUSH23 0x3D602D80600A3D3981F3363D3D373D3D3D363D73000000 DUP4 PUSH1 0x60 SHL PUSH1 0xE8 SHR OR PUSH1 0x0 MSTORE PUSH15 0x5AF43D82803E903D91602B57FD5BF3 DUP4 PUSH1 0x78 SHL OR PUSH1 0x20 MSTORE DUP2 PUSH1 0x37 PUSH1 0x9 PUSH1 0x0 CREATE2 SWAP1 POP PUSH1 0x0 PUSH20 0xFFFFFFFFFFFFFFFFFFFFFFFFFFFFFFFFFFFFFFFF AND DUP2 PUSH20 0xFFFFFFFFFFFFFFFFFFFFFFFFFFFFFFFFFFFFFFFF AND SUB PUSH2 0x90E JUMPI PUSH1 0x40 MLOAD PUSH32 0xC2F868F400000000000000000000000000000000000000000000000000000000 DUP2 MSTORE PUSH1 0x4 ADD PUSH1 0x40 MLOAD DUP1 SWAP2 SUB SWAP1 REVERT JUMPDEST SWAP3 SWAP2 POP POP JUMP JUMPDEST PUSH2 0x91C PUSH2 0xA74 JUMP JUMPDEST PUSH20 0xFFFFFFFFFFFFFFFFFFFFFFFFFFFFFFFFFFFFFFFF AND PUSH2 0x93A PUSH2 0x6B8 JUMP JUMPDEST PUSH20 0xFFFFFFFFFFFFFFFFFFFFFFFFFFFFFFFFFFFFFFFF AND EQ PUSH2 0x999 JUMPI PUSH2 0x95D PUSH2 0xA74 JUMP JUMPDEST PUSH1 0x40 MLOAD PUSH32 0x118CDAA700000000000000000000000000000000000000000000000000000000 DUP2 MSTORE PUSH1 0x4 ADD PUSH2 0x990 SWAP2 SWAP1 PUSH2 0xDF5 JUMP JUMPDEST PUSH1 0x40 MLOAD DUP1 SWAP2 SUB SWAP1 REVERT JUMPDEST JUMP JUMPDEST PUSH1 0x0 DUP1 PUSH1 0x0 SWAP1 SLOAD SWAP1 PUSH2 0x100 EXP SWAP1 DIV PUSH20 0xFFFFFFFFFFFFFFFFFFFFFFFFFFFFFFFFFFFFFFFF AND SWAP1 POP DUP2 PUSH1 0x0 DUP1 PUSH2 0x100 EXP DUP2 SLOAD DUP2 PUSH20 0xFFFFFFFFFFFFFFFFFFFFFFFFFFFFFFFFFFFFFFFF MUL NOT AND SWAP1 DUP4 PUSH20 0xFFFFFFFFFFFFFFFFFFFFFFFFFFFFFFFFFFFFFFFF AND MUL OR SWAP1 SSTORE POP DUP2 PUSH20 0xFFFFFFFFFFFFFFFFFFFFFFFFFFFFFFFFFFFFFFFF AND DUP2 PUSH20 0xFFFFFFFFFFFFFFFFFFFFFFFFFFFFFFFFFFFFFFFF AND PUSH32 0x8BE0079C531659141344CD1FD0A4F28419497F9722A3DAAFE3B4186F6B6457E0 PUSH1 0x40 MLOAD PUSH1 0x40 MLOAD DUP1 SWAP2 SUB SWAP1 LOG3 POP POP JUMP JUMPDEST PUSH1 0x0 PUSH2 0xA6C DUP4 DUP4 ADDRESS PUSH2 0xA7C JUMP JUMPDEST SWAP1 POP SWAP3 SWAP2 POP POP JUMP JUMPDEST PUSH1 0x0 CALLER SWAP1 POP SWAP1 JUMP JUMPDEST PUSH1 0x0 PUSH1 0x40 MLOAD DUP3 PUSH1 0x38 DUP3 ADD MSTORE PUSH16 0x5AF43D82803E903D91602B57FD5BF3FF PUSH1 0x24 DUP3 ADD MSTORE DUP5 PUSH1 0x14 DUP3 ADD MSTORE PUSH20 0x3D602D80600A3D3981F3363D3D373D3D3D363D73 DUP2 MSTORE DUP4 PUSH1 0x58 DUP3 ADD MSTORE PUSH1 0x37 PUSH1 0xC DUP3 ADD KECCAK256 PUSH1 0x78 DUP3 ADD MSTORE PUSH1 0x55 PUSH1 0x43 DUP3 ADD KECCAK256 SWAP2 POP POP SWAP4 SWAP3 POP POP POP JUMP JUMPDEST PUSH1 0x0 DUP2 ISZERO ISZERO SWAP1 POP SWAP2 SWAP1 POP JUMP JUMPDEST PUSH2 0xAF2 DUP2 PUSH2 0xADD JUMP JUMPDEST DUP3 MSTORE POP POP JUMP JUMPDEST PUSH1 0x0 PUSH1 0x20 DUP3 ADD SWAP1 POP PUSH2 0xB0D PUSH1 0x0 DUP4 ADD DUP5 PUSH2 0xAE9 JUMP JUMPDEST SWAP3 SWAP2 POP POP JUMP JUMPDEST PUSH1 0x0 DUP1 REVERT JUMPDEST PUSH1 0x0 DUP1 REVERT JUMPDEST PUSH1 0x0 DUP1 REVERT JUMPDEST PUSH1 0x0 DUP1 REVERT JUMPDEST PUSH1 0x0 DUP1 REVERT JUMPDEST PUSH1 0x0 DUP1 DUP4 PUSH1 0x1F DUP5 ADD SLT PUSH2 0xB42 JUMPI PUSH2 0xB41 PUSH2 0xB1D JUMP JUMPDEST JUMPDEST DUP3 CALLDATALOAD SWAP1 POP PUSH8 0xFFFFFFFFFFFFFFFF DUP2 GT ISZERO PUSH2 0xB5F JUMPI PUSH2 0xB5E PUSH2 0xB22 JUMP JUMPDEST JUMPDEST PUSH1 0x20 DUP4 ADD SWAP2 POP DUP4 PUSH1 0x1 DUP3 MUL DUP4 ADD GT ISZERO PUSH2 0xB7B JUMPI PUSH2 0xB7A PUSH2 0xB27 JUMP JUMPDEST JUMPDEST SWAP3 POP SWAP3 SWAP1 POP JUMP JUMPDEST PUSH1 0x0 DUP2 SWAP1 POP SWAP2 SWAP1 POP JUMP JUMPDEST PUSH2 0xB95 DUP2 PUSH2 0xB82 JUMP JUMPDEST DUP2 EQ PUSH2 0xBA0 JUMPI PUSH1 0x0 DUP1 REVERT JUMPDEST POP JUMP JUMPDEST PUSH1 0x0 DUP2 CALLDATALOAD SWAP1 POP PUSH2 0xBB2 DUP2 PUSH2 0xB8C JUMP JUMPDEST SWAP3 SWAP2 POP POP JUMP JUMPDEST PUSH1 0x0 DUP2 SWAP1 POP SWAP2 SWAP1 POP JUMP JUMPDEST PUSH2 0xBCB DUP2 PUSH2 0xBB8 JUMP JUMPDEST DUP2 EQ PUSH2 0xBD6 JUMPI PUSH1 0x0 DUP1 REVERT JUMPDEST POP JUMP JUMPDEST PUSH1 0x0 DUP2 CALLDATALOAD SWAP1 POP PUSH2 0xBE8 DUP2 PUSH2 0xBC2 JUMP JUMPDEST SWAP3 SWAP2 POP POP JUMP JUMPDEST PUSH1 0x0 DUP1 PUSH1 0x0 DUP1 PUSH1 0x0 DUP1 PUSH1 0x80 DUP8 DUP10 SUB SLT ISZERO PUSH2 0xC0B JUMPI PUSH2 0xC0A PUSH2 0xB13 JUMP JUMPDEST JUMPDEST PUSH1 0x0 DUP8 ADD CALLDATALOAD PUSH8 0xFFFFFFFFFFFFFFFF DUP2 GT ISZERO PUSH2 0xC29 JUMPI PUSH2 0xC28 PUSH2 0xB18 JUMP JUMPDEST JUMPDEST PUSH2 0xC35 DUP10 DUP3 DUP11 ADD PUSH2 0xB2C JUMP JUMPDEST SWAP7 POP SWAP7 POP POP PUSH1 0x20 DUP8 ADD CALLDATALOAD PUSH8 0xFFFFFFFFFFFFFFFF DUP2 GT ISZERO PUSH2 0xC58 JUMPI PUSH2 0xC57 PUSH2 0xB18 JUMP JUMPDEST JUMPDEST PUSH2 0xC64 DUP10 DUP3 DUP11 ADD PUSH2 0xB2C JUMP JUMPDEST SWAP5 POP SWAP5 POP POP PUSH1 0x40 PUSH2 0xC77 DUP10 DUP3 DUP11 ADD PUSH2 0xBA3 JUMP JUMPDEST SWAP3 POP POP PUSH1 0x60 PUSH2 0xC88 DUP10 DUP3 DUP11 ADD PUSH2 0xBD9 JUMP JUMPDEST SWAP2 POP POP SWAP3 SWAP6 POP SWAP3 SWAP6 POP SWAP3 SWAP6 JUMP JUMPDEST PUSH1 0x0 PUSH1 0x20 DUP3 DUP5 SUB SLT ISZERO PUSH2 0xCAB JUMPI PUSH2 0xCAA PUSH2 0xB13 JUMP JUMPDEST JUMPDEST PUSH1 0x0 PUSH2 0xCB9 DUP5 DUP3 DUP6 ADD PUSH2 0xBA3 JUMP JUMPDEST SWAP2 POP POP SWAP3 SWAP2 POP POP JUMP JUMPDEST PUSH1 0x0 PUSH20 0xFFFFFFFFFFFFFFFFFFFFFFFFFFFFFFFFFFFFFFFF DUP3 AND SWAP1 POP SWAP2 SWAP1 POP JUMP JUMPDEST PUSH1 0x0 PUSH2 0xCED DUP3 PUSH2 0xCC2 JUMP JUMPDEST SWAP1 POP SWAP2 SWAP1 POP JUMP JUMPDEST PUSH2 0xCFD DUP2 PUSH2 0xCE2 JUMP JUMPDEST DUP3 MSTORE POP POP JUMP JUMPDEST PUSH1 0x0 DUP2 MLOAD SWAP1 POP SWAP2 SWAP1 POP JUMP JUMPDEST PUSH1 0x0 DUP3 DUP3 MSTORE PUSH1 0x20 DUP3 ADD SWAP1 POP SWAP3 SWAP2 POP POP JUMP JUMPDEST PUSH1 0x0 JUMPDEST DUP4 DUP2 LT ISZERO PUSH2 0xD3D JUMPI DUP1 DUP3 ADD MLOAD DUP2 DUP5 ADD MSTORE PUSH1 0x20 DUP2 ADD SWAP1 POP PUSH2 0xD22 JUMP JUMPDEST PUSH1 0x0 DUP5 DUP5 ADD MSTORE POP POP POP POP JUMP JUMPDEST PUSH1 0x0 PUSH1 0x1F NOT PUSH1 0x1F DUP4 ADD AND SWAP1 POP SWAP2 SWAP1 POP JUMP JUMPDEST PUSH1 0x0 PUSH2 0xD65 DUP3 PUSH2 0xD03 JUMP JUMPDEST PUSH2 0xD6F DUP2 DUP6 PUSH2 0xD0E JUMP JUMPDEST SWAP4 POP PUSH2 0xD7F DUP2 DUP6 PUSH1 0x20 DUP7 ADD PUSH2 0xD1F JUMP JUMPDEST PUSH2 0xD88 DUP2 PUSH2 0xD49 JUMP JUMPDEST DUP5 ADD SWAP2 POP POP SWAP3 SWAP2 POP POP JUMP JUMPDEST PUSH2 0xD9C DUP2 PUSH2 0xB82 JUMP JUMPDEST DUP3 MSTORE POP POP JUMP JUMPDEST PUSH1 0x0 PUSH1 0x80 DUP3 ADD SWAP1 POP PUSH2 0xDB7 PUSH1 0x0 DUP4 ADD DUP8 PUSH2 0xCF4 JUMP JUMPDEST DUP2 DUP2 SUB PUSH1 0x20 DUP4 ADD MSTORE PUSH2 0xDC9 DUP2 DUP7 PUSH2 0xD5A JUMP JUMPDEST SWAP1 POP DUP2 DUP2 SUB PUSH1 0x40 DUP4 ADD MSTORE PUSH2 0xDDD DUP2 DUP6 PUSH2 0xD5A JUMP JUMPDEST SWAP1 POP PUSH2 0xDEC PUSH1 0x60 DUP4 ADD DUP5 PUSH2 0xD93 JUMP JUMPDEST SWAP6 SWAP5 POP POP POP POP POP JUMP JUMPDEST PUSH1 0x0 PUSH1 0x20 DUP3 ADD SWAP1 POP PUSH2 0xE0A PUSH1 0x0 DUP4 ADD DUP5 PUSH2 0xCF4 JUMP JUMPDEST SWAP3 SWAP2 POP POP JUMP JUMPDEST PUSH1 0x0 PUSH1 0x20 DUP3 DUP5 SUB SLT ISZERO PUSH2 0xE26 JUMPI PUSH2 0xE25 PUSH2 0xB13 JUMP JUMPDEST JUMPDEST PUSH1 0x0 PUSH2 0xE34 DUP5 DUP3 DUP6 ADD PUSH2 0xBD9 JUMP JUMPDEST SWAP2 POP POP SWAP3 SWAP2 POP POP JUMP JUMPDEST PUSH1 0x0 PUSH1 0x20 DUP3 ADD SWAP1 POP PUSH2 0xE52 PUSH1 0x0 DUP4 ADD DUP5 PUSH2 0xD93 JUMP JUMPDEST SWAP3 SWAP2 POP POP JUMP JUMPDEST PUSH2 0xE61 DUP2 PUSH2 0xCE2 JUMP JUMPDEST DUP2 EQ PUSH2 0xE6C JUMPI PUSH1 0x0 DUP1 REVERT JUMPDEST POP JUMP JUMPDEST PUSH1 0x0 DUP2 CALLDATALOAD SWAP1 POP PUSH2 0xE7E DUP2 PUSH2 0xE58 JUMP JUMPDEST SWAP3 SWAP2 POP POP JUMP JUMPDEST PUSH1 0x0 PUSH1 0x20 DUP3 DUP5 SUB SLT ISZERO PUSH2 0xE9A JUMPI PUSH2 0xE99 PUSH2 0xB13 JUMP JUMPDEST JUMPDEST PUSH1 0x0 PUSH2 0xEA8 DUP5 DUP3 DUP6 ADD PUSH2 0xE6F JUMP JUMPDEST SWAP2 POP POP SWAP3 SWAP2 POP POP JUMP JUMPDEST PUSH32 0x4E487B7100000000000000000000000000000000000000000000000000000000 PUSH1 0x0 MSTORE PUSH1 0x11 PUSH1 0x4 MSTORE PUSH1 0x24 PUSH1 0x0 REVERT JUMPDEST PUSH1 0x0 PUSH2 0xEEB DUP3 PUSH2 0xB82 JUMP JUMPDEST SWAP2 POP PUSH2 0xEF6 DUP4 PUSH2 0xB82 JUMP JUMPDEST SWAP3 POP DUP3 DUP3 MUL PUSH2 0xF04 DUP2 PUSH2 0xB82 JUMP JUMPDEST SWAP2 POP DUP3 DUP3 DIV DUP5 EQ DUP4 ISZERO OR PUSH2 0xF1B JUMPI PUSH2 0xF1A PUSH2 0xEB1 JUMP JUMPDEST JUMPDEST POP SWAP3 SWAP2 POP POP JUMP JUMPDEST PUSH32 0x4E487B7100000000000000000000000000000000000000000000000000000000 PUSH1 0x0 MSTORE PUSH1 0x12 PUSH1 0x4 MSTORE PUSH1 0x24 PUSH1 0x0 REVERT JUMPDEST PUSH1 0x0 PUSH2 0xF5C DUP3 PUSH2 0xB82 JUMP JUMPDEST SWAP2 POP PUSH2 0xF67 DUP4 PUSH2 0xB82 JUMP JUMPDEST SWAP3 POP DUP3 PUSH2 0xF77 JUMPI PUSH2 0xF76 PUSH2 0xF22 JUMP JUMPDEST JUMPDEST DUP3 DUP3 DIV SWAP1 POP SWAP3 SWAP2 POP POP JUMP JUMPDEST PUSH32 0x4E487B7100000000000000000000000000000000000000000000000000000000 PUSH1 0x0 MSTORE PUSH1 0x41 PUSH1 0x4 MSTORE PUSH1 0x24 PUSH1 0x0 REVERT JUMPDEST PUSH32 0x4E487B7100000000000000000000000000000000000000000000000000000000 PUSH1 0x0 MSTORE PUSH1 0x22 PUSH1 0x4 MSTORE PUSH1 0x24 PUSH1 0x0 REVERT JUMPDEST PUSH1 0x0 PUSH1 0x2 DUP3 DIV SWAP1 POP PUSH1 0x1 DUP3 AND DUP1 PUSH2 0xFF8 JUMPI PUSH1 0x7F DUP3 AND SWAP2 POP JUMPDEST PUSH1 0x20 DUP3 LT DUP2 SUB PUSH2 0x100B JUMPI PUSH2 0x100A PUSH2 0xFB1 JUMP JUMPDEST JUMPDEST POP SWAP2 SWAP1 POP JUMP JUMPDEST PUSH1 0x0 DUP2 SWAP1 POP DUP2 PUSH1 0x0 MSTORE PUSH1 0x20 PUSH1 0x0 KECCAK256 SWAP1 POP SWAP2 SWAP1 POP JUMP JUMPDEST PUSH1 0x0 PUSH1 0x20 PUSH1 0x1F DUP4 ADD DIV SWAP1 POP SWAP2 SWAP1 POP JUMP JUMPDEST PUSH1 0x0 DUP3 DUP3 SHL SWAP1 POP SWAP3 SWAP2 POP POP JUMP JUMPDEST PUSH1 0x0 PUSH1 0x8 DUP4 MUL PUSH2 0x1073 PUSH32 0xFFFFFFFFFFFFFFFFFFFFFFFFFFFFFFFFFFFFFFFFFFFFFFFFFFFFFFFFFFFFFFFF DUP3 PUSH2 0x1036 JUMP JUMPDEST PUSH2 0x107D DUP7 DUP4 PUSH2 0x1036 JUMP JUMPDEST SWAP6 POP DUP1 NOT DUP5 AND SWAP4 POP DUP1 DUP7 AND DUP5 OR SWAP3 POP POP POP SWAP4 SWAP3 POP POP POP JUMP JUMPDEST PUSH1 0x0 DUP2 SWAP1 POP SWAP2 SWAP1 POP JUMP JUMPDEST PUSH1 0x0 PUSH2 0x10BA PUSH2 0x10B5 PUSH2 0x10B0 DUP5 PUSH2 0xB82 JUMP JUMPDEST PUSH2 0x1095 JUMP JUMPDEST PUSH2 0xB82 JUMP JUMPDEST SWAP1 POP SWAP2 SWAP1 POP JUMP JUMPDEST PUSH1 0x0 DUP2 SWAP1 POP SWAP2 SWAP1 POP JUMP JUMPDEST PUSH2 0x10D4 DUP4 PUSH2 0x109F JUMP JUMPDEST PUSH2 0x10E8 PUSH2 0x10E0 DUP3 PUSH2 0x10C1 JUMP JUMPDEST DUP5 DUP5 SLOAD PUSH2 0x1043 JUMP JUMPDEST DUP3 SSTORE POP POP POP POP JUMP JUMPDEST PUSH1 0x0 SWAP1 JUMP JUMPDEST PUSH2 0x10FD PUSH2 0x10F0 JUMP JUMPDEST PUSH2 0x1108 DUP2 DUP5 DUP5 PUSH2 0x10CB JUMP JUMPDEST POP POP POP JUMP JUMPDEST JUMPDEST DUP2 DUP2 LT ISZERO PUSH2 0x112C JUMPI PUSH2 0x1121 PUSH1 0x0 DUP3 PUSH2 0x10F5 JUMP JUMPDEST PUSH1 0x1 DUP2 ADD SWAP1 POP PUSH2 0x110E JUMP JUMPDEST POP POP JUMP JUMPDEST PUSH1 0x1F DUP3 GT ISZERO PUSH2 0x1171 JUMPI PUSH2 0x1142 DUP2 PUSH2 0x1011 JUMP JUMPDEST PUSH2 0x114B DUP5 PUSH2 0x1026 JUMP JUMPDEST DUP2 ADD PUSH1 0x20 DUP6 LT ISZERO PUSH2 0x115A JUMPI DUP2 SWAP1 POP JUMPDEST PUSH2 0x116E PUSH2 0x1166 DUP6 PUSH2 0x1026 JUMP JUMPDEST DUP4 ADD DUP3 PUSH2 0x110D JUMP JUMPDEST POP POP JUMPDEST POP POP POP JUMP JUMPDEST PUSH1 0x0 DUP3 DUP3 SHR SWAP1 POP SWAP3 SWAP2 POP POP JUMP JUMPDEST PUSH1 0x0 PUSH2 0x1194 PUSH1 0x0 NOT DUP5 PUSH1 0x8 MUL PUSH2 0x1176 JUMP JUMPDEST NOT DUP1 DUP4 AND SWAP2 POP POP SWAP3 SWAP2 POP POP JUMP JUMPDEST PUSH1 0x0 PUSH2 0x11AD DUP4 DUP4 PUSH2 0x1183 JUMP JUMPDEST SWAP2 POP DUP3 PUSH1 0x2 MUL DUP3 OR SWAP1 POP SWAP3 SWAP2 POP POP JUMP JUMPDEST PUSH2 0x11C6 DUP3 PUSH2 0xD03 JUMP JUMPDEST PUSH8 0xFFFFFFFFFFFFFFFF DUP2 GT ISZERO PUSH2 0x11DF JUMPI PUSH2 0x11DE PUSH2 0xF82 JUMP JUMPDEST JUMPDEST PUSH2 0x11E9 DUP3 SLOAD PUSH2 0xFE0 JUMP JUMPDEST PUSH2 0x11F4 DUP3 DUP3 DUP6 PUSH2 0x1130 JUMP JUMPDEST PUSH1 0x0 PUSH1 0x20 SWAP1 POP PUSH1 0x1F DUP4 GT PUSH1 0x1 DUP2 EQ PUSH2 0x1227 JUMPI PUSH1 0x0 DUP5 ISZERO PUSH2 0x1215 JUMPI DUP3 DUP8 ADD MLOAD SWAP1 POP JUMPDEST PUSH2 0x121F DUP6 DUP3 PUSH2 0x11A1 JUMP JUMPDEST DUP7 SSTORE POP PUSH2 0x1287 JUMP JUMPDEST PUSH1 0x1F NOT DUP5 AND PUSH2 0x1235 DUP7 PUSH2 0x1011 JUMP JUMPDEST PUSH1 0x0 JUMPDEST DUP3 DUP2 LT ISZERO PUSH2 0x125D JUMPI DUP5 DUP10 ADD MLOAD DUP3 SSTORE PUSH1 0x1 DUP3 ADD SWAP2 POP PUSH1 0x20 DUP6 ADD SWAP5 POP PUSH1 0x20 DUP2 ADD SWAP1 POP PUSH2 0x1238 JUMP JUMPDEST DUP7 DUP4 LT ISZERO PUSH2 0x127A JUMPI DUP5 DUP10 ADD MLOAD PUSH2 0x1276 PUSH1 0x1F DUP10 AND DUP3 PUSH2 0x1183 JUMP JUMPDEST DUP4 SSTORE POP JUMPDEST PUSH1 0x1 PUSH1 0x2 DUP9 MUL ADD DUP9 SSTORE POP POP POP JUMPDEST POP POP POP POP POP POP JUMP JUMPDEST PUSH1 0x0 PUSH2 0x129A DUP3 PUSH2 0xB82 JUMP JUMPDEST SWAP2 POP PUSH2 0x12A5 DUP4 PUSH2 0xB82 JUMP JUMPDEST SWAP3 POP DUP3 DUP3 SUB SWAP1 POP DUP2 DUP2 GT ISZERO PUSH2 0x12BD JUMPI PUSH2 0x12BC PUSH2 0xEB1 JUMP JUMPDEST JUMPDEST SWAP3 SWAP2 POP POP JUMP JUMPDEST DUP3 DUP2 DUP4 CALLDATACOPY PUSH1 0x0 DUP4 DUP4 ADD MSTORE POP POP POP JUMP JUMPDEST PUSH1 0x0 PUSH2 0x12DE DUP4 DUP6 PUSH2 0xD0E JUMP JUMPDEST SWAP4 POP PUSH2 0x12EB DUP4 DUP6 DUP5 PUSH2 0x12C3 JUMP JUMPDEST PUSH2 0x12F4 DUP4 PUSH2 0xD49 JUMP JUMPDEST DUP5 ADD SWAP1 POP SWAP4 SWAP3 POP POP POP JUMP JUMPDEST PUSH1 0x0 PUSH1 0xC0 DUP3 ADD SWAP1 POP DUP2 DUP2 SUB PUSH1 0x0 DUP4 ADD MSTORE PUSH2 0x131A DUP2 DUP11 DUP13 PUSH2 0x12D2 JUMP JUMPDEST SWAP1 POP DUP2 DUP2 SUB PUSH1 0x20 DUP4 ADD MSTORE PUSH2 0x132F DUP2 DUP9 DUP11 PUSH2 0x12D2 JUMP JUMPDEST SWAP1 POP PUSH2 0x133E PUSH1 0x40 DUP4 ADD DUP8 PUSH2 0xCF4 JUMP JUMPDEST PUSH2 0x134B PUSH1 0x60 DUP4 ADD DUP7 PUSH2 0xD93 JUMP JUMPDEST PUSH2 0x1358 PUSH1 0x80 DUP4 ADD DUP6 PUSH2 0xCF4 JUMP JUMPDEST PUSH2 0x1365 PUSH1 0xA0 DUP4 ADD DUP5 PUSH2 0xD93 JUMP JUMPDEST SWAP10 SWAP9 POP POP POP POP POP POP POP POP POP JUMP JUMPDEST PUSH1 0x0 DUP2 SWAP1 POP SWAP3 SWAP2 POP POP JUMP JUMPDEST PUSH1 0x0 PUSH2 0x1389 DUP4 DUP6 PUSH2 0x1372 JUMP JUMPDEST SWAP4 POP PUSH2 0x1396 DUP4 DUP6 DUP5 PUSH2 0x12C3 JUMP JUMPDEST DUP3 DUP5 ADD SWAP1 POP SWAP4 SWAP3 POP POP POP JUMP JUMPDEST PUSH1 0x0 PUSH2 0x13AF DUP3 DUP5 DUP7 PUSH2 0x137D JUMP JUMPDEST SWAP2 POP DUP2 SWAP1 POP SWAP4 SWAP3 POP POP POP JUMP INVALID LOG2 PUSH5 0x6970667358 0x22 SLT KECCAK256 0xB8 0xDB 0xA5 0xD0 0x2F 0xDA EXTCODECOPY PUSH24 0x713F63B9E59C903AA1F795A822870CF76BA9DAFD432D34C5 PUSH5 0x736F6C6343 STOP ADDMOD XOR STOP CALLER "
        },
        "methodIdentifiers": {
          "FeeManager()": "c640c33c",
          "ReferralManager()": "176a3116",
          "changeFeeMode()": "edf33f78",
          "deploy(string,string,uint256,bytes32)": "22851012",
          "factory(uint256)": "22e3dec0",
          "fee()": "ddca3f43",
          "getCloneAddress(bytes32)": "91e1efa9",
          "implementation()": "5c60da1b",
          "owner()": "8da5cb5b",
          "renounceOwnership()": "715018a6",
          "transferOwnership(address)": "f2fde38b"
        }
      }
    }
  }
}