{
  "_format": "hh-sol-artifact-1",
  "contractName": "ERC20TokenFactory",
  "sourceName": "contracts/ERC20TokenFactory.sol",
  "abi": [
    {
      "inputs": [
        {
          "internalType": "address",
          "name": "_implementation",
          "type": "address"
        }
      ],
      "stateMutability": "nonpayable",
      "type": "constructor"
    },
    {
      "inputs": [],
      "name": "ERC1167FailedCreateClone",
      "type": "error"
    },
    {
      "inputs": [
        {
          "internalType": "address",
          "name": "owner",
          "type": "address"
        }
      ],
      "name": "OwnableInvalidOwner",
      "type": "error"
    },
    {
      "inputs": [
        {
          "internalType": "address",
          "name": "account",
          "type": "address"
        }
      ],
      "name": "OwnableUnauthorizedAccount",
      "type": "error"
    },
    {
      "anonymous": false,
      "inputs": [
        {
          "indexed": true,
          "internalType": "address",
          "name": "proxyAddress",
          "type": "address"
        },
        {
          "indexed": true,
          "internalType": "string",
          "name": "name",
          "type": "string"
        },
        {
          "indexed": true,
          "internalType": "string",
          "name": "symbol",
          "type": "string"
        },
        {
          "indexed": false,
          "internalType": "uint256",
          "name": "totalSupply",
          "type": "uint256"
        }
      ],
      "name": "Deploy",
      "type": "event"
    },
    {
      "anonymous": false,
      "inputs": [
        {
          "indexed": true,
          "internalType": "bool",
          "name": "FeeManager",
          "type": "bool"
        },
        {
          "indexed": true,
          "internalType": "bool",
          "name": "ReferralManager",
          "type": "bool"
        }
      ],
      "name": "FeeMode",
      "type": "event"
    },
    {
      "anonymous": false,
      "inputs": [
        {
          "indexed": true,
          "internalType": "address",
          "name": "previousOwner",
          "type": "address"
        },
        {
          "indexed": true,
          "internalType": "address",
          "name": "newOwner",
          "type": "address"
        }
      ],
      "name": "OwnershipTransferred",
      "type": "event"
    },
    {
      "inputs": [],
      "name": "FeeManager",
      "outputs": [
        {
          "internalType": "bool",
          "name": "",
          "type": "bool"
        }
      ],
      "stateMutability": "view",
      "type": "function"
    },
    {
      "inputs": [],
      "name": "ReferralManager",
      "outputs": [
        {
          "internalType": "bool",
          "name": "",
          "type": "bool"
        }
      ],
      "stateMutability": "view",
      "type": "function"
    },
    {
      "inputs": [],
      "name": "changeFeeMode",
      "outputs": [],
      "stateMutability": "nonpayable",
      "type": "function"
    },
    {
      "inputs": [
        {
          "internalType": "string",
          "name": "name",
          "type": "string"
        },
        {
          "internalType": "string",
          "name": "symbol",
          "type": "string"
        },
        {
          "internalType": "uint256",
          "name": "totalSupply",
          "type": "uint256"
        },
        {
          "internalType": "bytes32",
          "name": "salt",
          "type": "bytes32"
        }
      ],
      "name": "deploy",
      "outputs": [],
      "stateMutability": "nonpayable",
      "type": "function"
    },
    {
      "inputs": [
        {
          "internalType": "uint256",
          "name": "",
          "type": "uint256"
        }
      ],
      "name": "factory",
      "outputs": [
        {
          "internalType": "address",
          "name": "proxyAddress",
          "type": "address"
        },
        {
          "internalType": "string",
          "name": "name",
          "type": "string"
        },
        {
          "internalType": "string",
          "name": "symbol",
          "type": "string"
        },
        {
          "internalType": "uint256",
          "name": "totalSupply",
          "type": "uint256"
        }
      ],
      "stateMutability": "view",
      "type": "function"
    },
    {
      "inputs": [],
      "name": "fee",
      "outputs": [
        {
          "internalType": "uint256",
          "name": "",
          "type": "uint256"
        }
      ],
      "stateMutability": "view",
      "type": "function"
    },
    {
      "inputs": [
        {
          "internalType": "bytes32",
          "name": "salt",
          "type": "bytes32"
        }
      ],
      "name": "getCloneAddress",
      "outputs": [
        {
          "internalType": "address",
          "name": "",
          "type": "address"
        }
      ],
      "stateMutability": "view",
      "type": "function"
    },
    {
      "inputs": [],
      "name": "implementation",
      "outputs": [
        {
          "internalType": "address",
          "name": "",
          "type": "address"
        }
      ],
      "stateMutability": "view",
      "type": "function"
    },
    {
      "inputs": [],
      "name": "owner",
      "outputs": [
        {
          "internalType": "address",
          "name": "",
          "type": "address"
        }
      ],
      "stateMutability": "view",
      "type": "function"
    },
    {
      "inputs": [],
      "name": "renounceOwnership",
      "outputs": [],
      "stateMutability": "nonpayable",
      "type": "function"
    },
    {
      "inputs": [
        {
          "internalType": "address",
          "name": "newOwner",
          "type": "address"
        }
      ],
      "name": "transferOwnership",
      "outputs": [],
      "stateMutability": "nonpayable",
      "type": "function"
    }
  ],
  "bytecode": "0x60a06040523480156200001157600080fd5b50604051620016be380380620016be833981810160405281019062000037919062000243565b33600073ffffffffffffffffffffffffffffffffffffffff168173ffffffffffffffffffffffffffffffffffffffff1603620000ad5760006040517f1e4fbdf7000000000000000000000000000000000000000000000000000000008152600401620000a4919062000286565b60405180910390fd5b620000be816200011560201b60201c565b508073ffffffffffffffffffffffffffffffffffffffff1660808173ffffffffffffffffffffffffffffffffffffffff16815250506001600060146101000a81548160ff02191690831515021790555050620002a3565b60008060009054906101000a900473ffffffffffffffffffffffffffffffffffffffff169050816000806101000a81548173ffffffffffffffffffffffffffffffffffffffff021916908373ffffffffffffffffffffffffffffffffffffffff1602179055508173ffffffffffffffffffffffffffffffffffffffff168173ffffffffffffffffffffffffffffffffffffffff167f8be0079c531659141344cd1fd0a4f28419497f9722a3daafe3b4186f6b6457e060405160405180910390a35050565b600080fd5b600073ffffffffffffffffffffffffffffffffffffffff82169050919050565b60006200020b82620001de565b9050919050565b6200021d81620001fe565b81146200022957600080fd5b50565b6000815190506200023d8162000212565b92915050565b6000602082840312156200025c576200025b620001d9565b5b60006200026c848285016200022c565b91505092915050565b6200028081620001fe565b82525050565b60006020820190506200029d600083018462000275565b92915050565b6080516113f1620002cd6000396000818161026a0152818161068201526106e801526113f16000f3fe608060405234801561001057600080fd5b50600436106100a95760003560e01c80638da5cb5b116100715780638da5cb5b1461014357806391e1efa914610161578063c640c33c14610191578063ddca3f43146101af578063edf33f78146101cd578063f2fde38b146101d7576100a9565b8063176a3116146100ae57806322851012146100cc57806322e3dec0146100e85780635c60da1b1461011b578063715018a614610139575b600080fd5b6100b66101f3565b6040516100c39190610af8565b60405180910390f35b6100e660048036038101906100e19190610bee565b610206565b005b61010260048036038101906100fd9190610c95565b610510565b6040516101129493929190610da2565b60405180910390f35b610123610680565b6040516101309190610df5565b60405180910390f35b6101416106a4565b005b61014b6106b8565b6040516101589190610df5565b60405180910390f35b61017b60048036038101906101769190610e10565b6106e1565b6040516101889190610df5565b60405180910390f35b610199610714565b6040516101a69190610af8565b60405180910390f35b6101b7610727565b6040516101c49190610e3d565b60405180910390f35b6101d561072d565b005b6101f160048036038101906101ec9190610e84565b6107db565b005b600060159054906101000a900460ff1681565b600060159054906101000a900460ff161561024157620f424082600261022c9190610ee0565b6102369190610f51565b600181905550610263565b620f42408260036102529190610ee0565b61025c9190610f51565b6001819055505b600061028f7f000000000000000000000000000000000000000000000000000000000000000083610861565b9050600260405180608001604052808373ffffffffffffffffffffffffffffffffffffffff16815260200189898080601f016020809104026020016040519081016040528093929190818152602001838380828437600081840152601f19601f82011690508083019250505050505050815260200187878080601f016020809104026020016040519081016040528093929190818152602001838380828437600081840152601f19601f82011690508083019250505050505050815260200185815250908060018154018082558091505060019003906000526020600020906004020160009091909190915060008201518160000160006101000a81548173ffffffffffffffffffffffffffffffffffffffff021916908373ffffffffffffffffffffffffffffffffffffffff16021790555060208201518160010190816103d791906111bd565b5060408201518160020190816103ed91906111bd565b506060820151816003015550508073ffffffffffffffffffffffffffffffffffffffff1663be9561f088888888336001548a610429919061128f565b6104316106b8565b6001546040518963ffffffff1660e01b81526004016104579897969594939291906112ff565b600060405180830381600087803b15801561047157600080fd5b505af1158015610485573d6000803e3d6000fd5b5050505084846040516104999291906113a2565b604051809103902087876040516104b19291906113a2565b60405180910390208273ffffffffffffffffffffffffffffffffffffffff167f4ed2a9679c30b5d51cf119d4ad9f55161b33a3ccdbf76054c8c75ded8140b7de866040516104ff9190610e3d565b60405180910390a450505050505050565b6002818154811061052057600080fd5b90600052602060002090600402016000915090508060000160009054906101000a900473ffffffffffffffffffffffffffffffffffffffff169080600101805461056990610fe0565b80601f016020809104026020016040519081016040528092919081815260200182805461059590610fe0565b80156105e25780601f106105b7576101008083540402835291602001916105e2565b820191906000526020600020905b8154815290600101906020018083116105c557829003601f168201915b5050505050908060020180546105f790610fe0565b80601f016020809104026020016040519081016040528092919081815260200182805461062390610fe0565b80156106705780601f1061064557610100808354040283529160200191610670565b820191906000526020600020905b81548152906001019060200180831161065357829003601f168201915b5050505050908060030154905084565b7f000000000000000000000000000000000000000000000000000000000000000081565b6106ac610914565b6106b6600061099b565b565b60008060009054906101000a900473ffffffffffffffffffffffffffffffffffffffff16905090565b600061070d7f000000000000000000000000000000000000000000000000000000000000000083610a5f565b9050919050565b600060149054906101000a900460ff1681565b60015481565b610735610914565b600060149054906101000a900460ff1615600060146101000a81548160ff021916908315150217905550600060159054906101000a900460ff1615600060156101000a81548160ff021916908315150217905550600060159054906101000a900460ff161515600060149054906101000a900460ff1615157fbbdf873e1319f800be73a77e1aaf11aaba6b4d52a2d95ad019a51c69e54d780660405160405180910390a3565b6107e3610914565b600073ffffffffffffffffffffffffffffffffffffffff168173ffffffffffffffffffffffffffffffffffffffff16036108555760006040517f1e4fbdf700000000000000000000000000000000000000000000000000000000815260040161084c9190610df5565b60405180910390fd5b61085e8161099b565b50565b6000763d602d80600a3d3981f3363d3d373d3d3d363d730000008360601b60e81c176000526e5af43d82803e903d91602b57fd5bf38360781b1760205281603760096000f59050600073ffffffffffffffffffffffffffffffffffffffff168173ffffffffffffffffffffffffffffffffffffffff160361090e576040517fc2f868f400000000000000000000000000000000000000000000000000000000815260040160405180910390fd5b92915050565b61091c610a74565b73ffffffffffffffffffffffffffffffffffffffff1661093a6106b8565b73ffffffffffffffffffffffffffffffffffffffff16146109995761095d610a74565b6040517f118cdaa70000000000000000000000000000000000000000000000000000000081526004016109909190610df5565b60405180910390fd5b565b60008060009054906101000a900473ffffffffffffffffffffffffffffffffffffffff169050816000806101000a81548173ffffffffffffffffffffffffffffffffffffffff021916908373ffffffffffffffffffffffffffffffffffffffff1602179055508173ffffffffffffffffffffffffffffffffffffffff168173ffffffffffffffffffffffffffffffffffffffff167f8be0079c531659141344cd1fd0a4f28419497f9722a3daafe3b4186f6b6457e060405160405180910390a35050565b6000610a6c838330610a7c565b905092915050565b600033905090565b60006040518260388201526f5af43d82803e903d91602b57fd5bf3ff6024820152846014820152733d602d80600a3d3981f3363d3d373d3d3d363d7381528360588201526037600c8201206078820152605560438201209150509392505050565b60008115159050919050565b610af281610add565b82525050565b6000602082019050610b0d6000830184610ae9565b92915050565b600080fd5b600080fd5b600080fd5b600080fd5b600080fd5b60008083601f840112610b4257610b41610b1d565b5b8235905067ffffffffffffffff811115610b5f57610b5e610b22565b5b602083019150836001820283011115610b7b57610b7a610b27565b5b9250929050565b6000819050919050565b610b9581610b82565b8114610ba057600080fd5b50565b600081359050610bb281610b8c565b92915050565b6000819050919050565b610bcb81610bb8565b8114610bd657600080fd5b50565b600081359050610be881610bc2565b92915050565b60008060008060008060808789031215610c0b57610c0a610b13565b5b600087013567ffffffffffffffff811115610c2957610c28610b18565b5b610c3589828a01610b2c565b9650965050602087013567ffffffffffffffff811115610c5857610c57610b18565b5b610c6489828a01610b2c565b94509450506040610c7789828a01610ba3565b9250506060610c8889828a01610bd9565b9150509295509295509295565b600060208284031215610cab57610caa610b13565b5b6000610cb984828501610ba3565b91505092915050565b600073ffffffffffffffffffffffffffffffffffffffff82169050919050565b6000610ced82610cc2565b9050919050565b610cfd81610ce2565b82525050565b600081519050919050565b600082825260208201905092915050565b60005b83811015610d3d578082015181840152602081019050610d22565b60008484015250505050565b6000601f19601f8301169050919050565b6000610d6582610d03565b610d6f8185610d0e565b9350610d7f818560208601610d1f565b610d8881610d49565b840191505092915050565b610d9c81610b82565b82525050565b6000608082019050610db76000830187610cf4565b8181036020830152610dc98186610d5a565b90508181036040830152610ddd8185610d5a565b9050610dec6060830184610d93565b95945050505050565b6000602082019050610e0a6000830184610cf4565b92915050565b600060208284031215610e2657610e25610b13565b5b6000610e3484828501610bd9565b91505092915050565b6000602082019050610e526000830184610d93565b92915050565b610e6181610ce2565b8114610e6c57600080fd5b50565b600081359050610e7e81610e58565b92915050565b600060208284031215610e9a57610e99610b13565b5b6000610ea884828501610e6f565b91505092915050565b7f4e487b7100000000000000000000000000000000000000000000000000000000600052601160045260246000fd5b6000610eeb82610b82565b9150610ef683610b82565b9250828202610f0481610b82565b91508282048414831517610f1b57610f1a610eb1565b5b5092915050565b7f4e487b7100000000000000000000000000000000000000000000000000000000600052601260045260246000fd5b6000610f5c82610b82565b9150610f6783610b82565b925082610f7757610f76610f22565b5b828204905092915050565b7f4e487b7100000000000000000000000000000000000000000000000000000000600052604160045260246000fd5b7f4e487b7100000000000000000000000000000000000000000000000000000000600052602260045260246000fd5b60006002820490506001821680610ff857607f821691505b60208210810361100b5761100a610fb1565b5b50919050565b60008190508160005260206000209050919050565b60006020601f8301049050919050565b600082821b905092915050565b6000600883026110737fffffffffffffffffffffffffffffffffffffffffffffffffffffffffffffffff82611036565b61107d8683611036565b95508019841693508086168417925050509392505050565b6000819050919050565b60006110ba6110b56110b084610b82565b611095565b610b82565b9050919050565b6000819050919050565b6110d48361109f565b6110e86110e0826110c1565b848454611043565b825550505050565b600090565b6110fd6110f0565b6111088184846110cb565b505050565b5b8181101561112c576111216000826110f5565b60018101905061110e565b5050565b601f8211156111715761114281611011565b61114b84611026565b8101602085101561115a578190505b61116e61116685611026565b83018261110d565b50505b505050565b600082821c905092915050565b600061119460001984600802611176565b1980831691505092915050565b60006111ad8383611183565b9150826002028217905092915050565b6111c682610d03565b67ffffffffffffffff8111156111df576111de610f82565b5b6111e98254610fe0565b6111f4828285611130565b600060209050601f8311600181146112275760008415611215578287015190505b61121f85826111a1565b865550611287565b601f19841661123586611011565b60005b8281101561125d57848901518255600182019150602085019450602081019050611238565b8683101561127a5784890151611276601f891682611183565b8355505b6001600288020188555050505b505050505050565b600061129a82610b82565b91506112a583610b82565b92508282039050818111156112bd576112bc610eb1565b5b92915050565b82818337600083830152505050565b60006112de8385610d0e565b93506112eb8385846112c3565b6112f483610d49565b840190509392505050565b600060c082019050818103600083015261131a818a8c6112d2565b9050818103602083015261132f81888a6112d2565b905061133e6040830187610cf4565b61134b6060830186610d93565b6113586080830185610cf4565b61136560a0830184610d93565b9998505050505050505050565b600081905092915050565b60006113898385611372565b93506113968385846112c3565b82840190509392505050565b60006113af82848661137d565b9150819050939250505056fea2646970667358221220b8dba5d02fda3c77713f63b9e59c903aa1f795a822870cf76ba9dafd432d34c564736f6c63430008180033",
  "linkReferences": {},
  "deployedLinkReferences": {}
}