{
  "_format": "hh-sol-artifact-1",
  "contractName": "ERC20TokenFactory",
  "sourceName": "contracts/ERC20TokenFactory.sol",
  "abi": [
    {
      "inputs": [
        {
          "internalType": "address",
          "name": "_implementation",
          "type": "address"
        }
      ],
      "stateMutability": "nonpayable",
      "type": "constructor"
    },
    {
      "inputs": [],
      "name": "ERC1167FailedCreateClone",
      "type": "error"
    },
    {
      "inputs": [
        {
          "internalType": "address",
          "name": "owner",
          "type": "address"
        }
      ],
      "name": "OwnableInvalidOwner",
      "type": "error"
    },
    {
      "inputs": [
        {
          "internalType": "address",
          "name": "account",
          "type": "address"
        }
      ],
      "name": "OwnableUnauthorizedAccount",
      "type": "error"
    },
    {
      "anonymous": false,
      "inputs": [
        {
          "indexed": true,
          "internalType": "address",
          "name": "previousOwner",
          "type": "address"
        },
        {
          "indexed": true,
          "internalType": "address",
          "name": "newOwner",
          "type": "address"
        }
      ],
      "name": "OwnershipTransferred",
      "type": "event"
    },
    {
      "inputs": [],
      "name": "FeeManager",
      "outputs": [
        {
          "internalType": "bool",
          "name": "",
          "type": "bool"
        }
      ],
      "stateMutability": "view",
      "type": "function"
    },
    {
      "inputs": [],
      "name": "ReferralManager",
      "outputs": [
        {
          "internalType": "bool",
          "name": "",
          "type": "bool"
        }
      ],
      "stateMutability": "view",
      "type": "function"
    },
    {
      "inputs": [],
      "name": "changeFeeMode",
      "outputs": [],
      "stateMutability": "nonpayable",
      "type": "function"
    },
    {
      "inputs": [
        {
          "internalType": "string",
          "name": "name",
          "type": "string"
        },
        {
          "internalType": "string",
          "name": "symbol",
          "type": "string"
        },
        {
          "internalType": "uint256",
          "name": "totalSupply",
          "type": "uint256"
        },
        {
          "internalType": "bytes32",
          "name": "salt",
          "type": "bytes32"
        }
      ],
      "name": "deploy",
      "outputs": [],
      "stateMutability": "nonpayable",
      "type": "function"
    },
    {
      "inputs": [
        {
          "internalType": "uint256",
          "name": "",
          "type": "uint256"
        }
      ],
      "name": "factory",
      "outputs": [
        {
          "internalType": "address",
          "name": "proxyAddress",
          "type": "address"
        },
        {
          "internalType": "string",
          "name": "name",
          "type": "string"
        },
        {
          "internalType": "string",
          "name": "symbol",
          "type": "string"
        },
        {
          "internalType": "uint256",
          "name": "totalSupply",
          "type": "uint256"
        }
      ],
      "stateMutability": "view",
      "type": "function"
    },
    {
      "inputs": [],
      "name": "fee",
      "outputs": [
        {
          "internalType": "uint256",
          "name": "",
          "type": "uint256"
        }
      ],
      "stateMutability": "view",
      "type": "function"
    },
    {
      "inputs": [
        {
          "internalType": "bytes32",
          "name": "salt",
          "type": "bytes32"
        }
      ],
      "name": "getCloneAddress",
      "outputs": [
        {
          "internalType": "address",
          "name": "",
          "type": "address"
        }
      ],
      "stateMutability": "view",
      "type": "function"
    },
    {
      "inputs": [],
      "name": "implementation",
      "outputs": [
        {
          "internalType": "address",
          "name": "",
          "type": "address"
        }
      ],
      "stateMutability": "view",
      "type": "function"
    },
    {
      "inputs": [],
      "name": "owner",
      "outputs": [
        {
          "internalType": "address",
          "name": "",
          "type": "address"
        }
      ],
      "stateMutability": "view",
      "type": "function"
    },
    {
      "inputs": [],
      "name": "renounceOwnership",
      "outputs": [],
      "stateMutability": "nonpayable",
      "type": "function"
    },
    {
      "inputs": [
        {
          "internalType": "address",
          "name": "newOwner",
          "type": "address"
        }
      ],
      "name": "transferOwnership",
      "outputs": [],
      "stateMutability": "nonpayable",
      "type": "function"
    }
  ],
  "bytecode": "0x60a06040523480156200001157600080fd5b5060405162001a8d38038062001a8d83398181016040528101906200003791906200029a565b33600073ffffffffffffffffffffffffffffffffffffffff168173ffffffffffffffffffffffffffffffffffffffff1603620000ad5760006040517f1e4fbdf7000000000000000000000000000000000000000000000000000000008152600401620000a49190620002dd565b60405180910390fd5b620000be816200016960201b60201c565b50620000db67b0b3a4d31e9d2a9860c01b6200022d60201b60201c565b620000f7679a8285d4bdf04e0a60c01b6200022d60201b60201c565b8073ffffffffffffffffffffffffffffffffffffffff1660808173ffffffffffffffffffffffffffffffffffffffff16815250506200014767037ec73ad8387dfd60c01b6200022d60201b60201c565b6001600060146101000a81548160ff02191690831515021790555050620002fa565b60008060009054906101000a900473ffffffffffffffffffffffffffffffffffffffff169050816000806101000a81548173ffffffffffffffffffffffffffffffffffffffff021916908373ffffffffffffffffffffffffffffffffffffffff1602179055508173ffffffffffffffffffffffffffffffffffffffff168173ffffffffffffffffffffffffffffffffffffffff167f8be0079c531659141344cd1fd0a4f28419497f9722a3daafe3b4186f6b6457e060405160405180910390a35050565b50565b600080fd5b600073ffffffffffffffffffffffffffffffffffffffff82169050919050565b6000620002628262000235565b9050919050565b620002748162000255565b81146200028057600080fd5b50565b600081519050620002948162000269565b92915050565b600060208284031215620002b357620002b262000230565b5b6000620002c38482850162000283565b91505092915050565b620002d78162000255565b82525050565b6000602082019050620002f46000830184620002cc565b92915050565b608051611769620003246000396000818161031e0152818161079b015261083d01526117696000f3fe608060405234801561001057600080fd5b50600436106100a95760003560e01c80638da5cb5b116100715780638da5cb5b1461014357806391e1efa914610161578063c640c33c14610191578063ddca3f43146101af578063edf33f78146101cd578063f2fde38b146101d7576100a9565b8063176a3116146100ae57806322851012146100cc57806322e3dec0146100e85780635c60da1b1461011b578063715018a614610139575b600080fd5b6100b66101f3565b6040516100c39190610de9565b60405180910390f35b6100e660048036038101906100e19190610edf565b610206565b005b61010260048036038101906100fd9190610f86565b610629565b6040516101129493929190611093565b60405180910390f35b610123610799565b60405161013091906110e6565b60405180910390f35b6101416107bd565b005b61014b6107d1565b60405161015891906110e6565b60405180910390f35b61017b60048036038101906101769190611101565b6107fa565b60405161018891906110e6565b60405180910390f35b610199610869565b6040516101a69190610de9565b60405180910390f35b6101b761087c565b6040516101c4919061112e565b60405180910390f35b6101d5610882565b005b6101f160048036038101906101ec9190611175565b610944565b005b600060159054906101000a900460ff1681565b61021a674eb65de8c0382a5d60c01b6109ca565b61022e67e58672a29b1b76d960c01b6109ca565b6102426762123f8c4fbaea8b60c01b6109ca565b600060159054906101000a900460ff16156102a55761026b679143809d513784a160c01b6109ca565b61027f676a7348e2886844a060c01b6109ca565b620f424082600261029091906111d1565b61029a9190611242565b6001819055506102ef565b6102b967050049821860b87a60c01b6109ca565b6102cd676f92f6361a27617260c01b6109ca565b620f42408260036102de91906111d1565b6102e89190611242565b6001819055505b61030367094dff991d2f28fe60c01b6109ca565b61031767c2c2012067249d2a60c01b6109ca565b60006103437f0000000000000000000000000000000000000000000000000000000000000000836109cd565b905061035967426019b8a9e9c4b760c01b6109ca565b61036d67ccd8c71466ff12db60c01b6109ca565b61038f60405180606001604052806027815260200161170d6027913982610a80565b6103a3679081f1c1e85d130b60c01b6109ca565b6103b767789e1456f27e035260c01b6109ca565b600260405180608001604052808373ffffffffffffffffffffffffffffffffffffffff16815260200189898080601f016020809104026020016040519081016040528093929190818152602001838380828437600081840152601f19601f82011690508083019250505050505050815260200187878080601f016020809104026020016040519081016040528093929190818152602001838380828437600081840152601f19601f82011690508083019250505050505050815260200185815250908060018154018082558091505060019003906000526020600020906004020160009091909190915060008201518160000160006101000a81548173ffffffffffffffffffffffffffffffffffffffff021916908373ffffffffffffffffffffffffffffffffffffffff16021790555060208201518160010190816104fd91906114ae565b50604082015181600201908161051391906114ae565b506060820151816003015550506105346759876c661a595f2c60c01b6109ca565b6105486785340c27137cd05160c01b6109ca565b6105696040518060600160405280602881526020016116e560289139610b1c565b61057d67d1ff98fecd29ce9360c01b6109ca565b61059167c537476adcc7cf2160c01b6109ca565b8073ffffffffffffffffffffffffffffffffffffffff1663be9561f088888888336001548a6105c09190611580565b6105c86107d1565b6001546040518963ffffffff1660e01b81526004016105ee9897969594939291906115f0565b600060405180830381600087803b15801561060857600080fd5b505af115801561061c573d6000803e3d6000fd5b5050505050505050505050565b6002818154811061063957600080fd5b90600052602060002090600402016000915090508060000160009054906101000a900473ffffffffffffffffffffffffffffffffffffffff1690806001018054610682906112d1565b80601f01602080910402602001604051908101604052809291908181526020018280546106ae906112d1565b80156106fb5780601f106106d0576101008083540402835291602001916106fb565b820191906000526020600020905b8154815290600101906020018083116106de57829003601f168201915b505050505090806002018054610710906112d1565b80601f016020809104026020016040519081016040528092919081815260200182805461073c906112d1565b80156107895780601f1061075e57610100808354040283529160200191610789565b820191906000526020600020905b81548152906001019060200180831161076c57829003601f168201915b5050505050908060030154905084565b7f000000000000000000000000000000000000000000000000000000000000000081565b6107c5610bb5565b6107cf6000610c3c565b565b60008060009054906101000a900473ffffffffffffffffffffffffffffffffffffffff16905090565b600061081067707e65b187bda74360c01b6109ca565b610824670dd4c552d6d22ea560c01b6109ca565b610838670b5c3bc027393ec260c01b6109ca565b6108627f000000000000000000000000000000000000000000000000000000000000000083610d00565b9050919050565b600060149054906101000a900460ff1681565b60015481565b61089667cb536f9b99c823f560c01b6109ca565b61089e610bb5565b6108b2674a078938d969110160c01b6109ca565b6108c667b523bc2ccde43f5760c01b6109ca565b6108da679c487f627a876e9f60c01b6109ca565b600060149054906101000a900460ff1615600060146101000a81548160ff02191690831515021790555061091867bdf49ad9617dc97a60c01b6109ca565b600060159054906101000a900460ff1615600060156101000a81548160ff021916908315150217905550565b61094c610bb5565b600073ffffffffffffffffffffffffffffffffffffffff168173ffffffffffffffffffffffffffffffffffffffff16036109be5760006040517f1e4fbdf70000000000000000000000000000000000000000000000000000000081526004016109b591906110e6565b60405180910390fd5b6109c781610c3c565b50565b50565b6000763d602d80600a3d3981f3363d3d373d3d3d363d730000008360601b60e81c176000526e5af43d82803e903d91602b57fd5bf38360781b1760205281603760096000f59050600073ffffffffffffffffffffffffffffffffffffffff168173ffffffffffffffffffffffffffffffffffffffff1603610a7a576040517fc2f868f400000000000000000000000000000000000000000000000000000000815260040160405180910390fd5b92915050565b610b188282604051602401610a96929190611663565b6040516020818303038152906040527f319af333000000000000000000000000000000000000000000000000000000007bffffffffffffffffffffffffffffffffffffffffffffffffffffffff19166020820180517bffffffffffffffffffffffffffffffffffffffffffffffffffffffff8381831617835250505050610d15565b5050565b610bb281604051602401610b309190611693565b6040516020818303038152906040527f41304fac000000000000000000000000000000000000000000000000000000007bffffffffffffffffffffffffffffffffffffffffffffffffffffffff19166020820180517bffffffffffffffffffffffffffffffffffffffffffffffffffffffff8381831617835250505050610d15565b50565b610bbd610d2f565b73ffffffffffffffffffffffffffffffffffffffff16610bdb6107d1565b73ffffffffffffffffffffffffffffffffffffffff1614610c3a57610bfe610d2f565b6040517f118cdaa7000000000000000000000000000000000000000000000000000000008152600401610c3191906110e6565b60405180910390fd5b565b60008060009054906101000a900473ffffffffffffffffffffffffffffffffffffffff169050816000806101000a81548173ffffffffffffffffffffffffffffffffffffffff021916908373ffffffffffffffffffffffffffffffffffffffff1602179055508173ffffffffffffffffffffffffffffffffffffffff168173ffffffffffffffffffffffffffffffffffffffff167f8be0079c531659141344cd1fd0a4f28419497f9722a3daafe3b4186f6b6457e060405160405180910390a35050565b6000610d0d838330610d37565b905092915050565b610d2c81610d24610d98610db9565b63ffffffff16565b50565b600033905090565b60006040518260388201526f5af43d82803e903d91602b57fd5bf3ff6024820152846014820152733d602d80600a3d3981f3363d3d373d3d3d363d7381528360588201526037600c8201206078820152605560438201209150509392505050565b60006a636f6e736f6c652e6c6f679050600080835160208501845afa505050565b610dc4819050919050565b610dcc6116b5565b565b60008115159050919050565b610de381610dce565b82525050565b6000602082019050610dfe6000830184610dda565b92915050565b600080fd5b600080fd5b600080fd5b600080fd5b600080fd5b60008083601f840112610e3357610e32610e0e565b5b8235905067ffffffffffffffff811115610e5057610e4f610e13565b5b602083019150836001820283011115610e6c57610e6b610e18565b5b9250929050565b6000819050919050565b610e8681610e73565b8114610e9157600080fd5b50565b600081359050610ea381610e7d565b92915050565b6000819050919050565b610ebc81610ea9565b8114610ec757600080fd5b50565b600081359050610ed981610eb3565b92915050565b60008060008060008060808789031215610efc57610efb610e04565b5b600087013567ffffffffffffffff811115610f1a57610f19610e09565b5b610f2689828a01610e1d565b9650965050602087013567ffffffffffffffff811115610f4957610f48610e09565b5b610f5589828a01610e1d565b94509450506040610f6889828a01610e94565b9250506060610f7989828a01610eca565b9150509295509295509295565b600060208284031215610f9c57610f9b610e04565b5b6000610faa84828501610e94565b91505092915050565b600073ffffffffffffffffffffffffffffffffffffffff82169050919050565b6000610fde82610fb3565b9050919050565b610fee81610fd3565b82525050565b600081519050919050565b600082825260208201905092915050565b60005b8381101561102e578082015181840152602081019050611013565b60008484015250505050565b6000601f19601f8301169050919050565b600061105682610ff4565b6110608185610fff565b9350611070818560208601611010565b6110798161103a565b840191505092915050565b61108d81610e73565b82525050565b60006080820190506110a86000830187610fe5565b81810360208301526110ba818661104b565b905081810360408301526110ce818561104b565b90506110dd6060830184611084565b95945050505050565b60006020820190506110fb6000830184610fe5565b92915050565b60006020828403121561111757611116610e04565b5b600061112584828501610eca565b91505092915050565b60006020820190506111436000830184611084565b92915050565b61115281610fd3565b811461115d57600080fd5b50565b60008135905061116f81611149565b92915050565b60006020828403121561118b5761118a610e04565b5b600061119984828501611160565b91505092915050565b7f4e487b7100000000000000000000000000000000000000000000000000000000600052601160045260246000fd5b60006111dc82610e73565b91506111e783610e73565b92508282026111f581610e73565b9150828204841483151761120c5761120b6111a2565b5b5092915050565b7f4e487b7100000000000000000000000000000000000000000000000000000000600052601260045260246000fd5b600061124d82610e73565b915061125883610e73565b92508261126857611267611213565b5b828204905092915050565b7f4e487b7100000000000000000000000000000000000000000000000000000000600052604160045260246000fd5b7f4e487b7100000000000000000000000000000000000000000000000000000000600052602260045260246000fd5b600060028204905060018216806112e957607f821691505b6020821081036112fc576112fb6112a2565b5b50919050565b60008190508160005260206000209050919050565b60006020601f8301049050919050565b600082821b905092915050565b6000600883026113647fffffffffffffffffffffffffffffffffffffffffffffffffffffffffffffffff82611327565b61136e8683611327565b95508019841693508086168417925050509392505050565b6000819050919050565b60006113ab6113a66113a184610e73565b611386565b610e73565b9050919050565b6000819050919050565b6113c583611390565b6113d96113d1826113b2565b848454611334565b825550505050565b600090565b6113ee6113e1565b6113f98184846113bc565b505050565b5b8181101561141d576114126000826113e6565b6001810190506113ff565b5050565b601f8211156114625761143381611302565b61143c84611317565b8101602085101561144b578190505b61145f61145785611317565b8301826113fe565b50505b505050565b600082821c905092915050565b600061148560001984600802611467565b1980831691505092915050565b600061149e8383611474565b9150826002028217905092915050565b6114b782610ff4565b67ffffffffffffffff8111156114d0576114cf611273565b5b6114da82546112d1565b6114e5828285611421565b600060209050601f8311600181146115185760008415611506578287015190505b6115108582611492565b865550611578565b601f19841661152686611302565b60005b8281101561154e57848901518255600182019150602085019450602081019050611529565b8683101561156b5784890151611567601f891682611474565b8355505b6001600288020188555050505b505050505050565b600061158b82610e73565b915061159683610e73565b92508282039050818111156115ae576115ad6111a2565b5b92915050565b82818337600083830152505050565b60006115cf8385610fff565b93506115dc8385846115b4565b6115e58361103a565b840190509392505050565b600060c082019050818103600083015261160b818a8c6115c3565b9050818103602083015261162081888a6115c3565b905061162f6040830187610fe5565b61163c6060830186611084565b6116496080830185610fe5565b61165660a0830184611084565b9998505050505050505050565b6000604082019050818103600083015261167d818561104b565b905061168c6020830184610fe5565b9392505050565b600060208201905081810360008301526116ad818461104b565b905092915050565b7f4e487b7100000000000000000000000000000000000000000000000000000000600052605160045260246000fdfe546865726520697320736f6d657468696e672077726f6e67207769746820696e697469616c697a6550726f787920636f6e747261637420616464726573732020202020202020202020202020202020a26469706673582212205cbd9a8b92dae44b1a65ea4da0a648a40d5a38a3b2b51e931b93b9c133ae3c0164736f6c63430008180033",
  "linkReferences": {},
  "deployedLinkReferences": {}
}